{
  "address": "0xa513E6E4b8f2a923D98304ec87F64353C4D5C853",
  "abi": [
    {
      "inputs": [
        {
          "internalType": "address",
          "name": "feeCollector",
          "type": "address"
        }
      ],
      "stateMutability": "nonpayable",
      "type": "constructor"
    },
    {
      "inputs": [],
      "name": "Hat__InvalidFeeCollector",
      "type": "error"
    },
    {
      "inputs": [],
      "name": "Hat__InvalidMintFee",
      "type": "error"
    },
    {
      "inputs": [],
      "name": "Hat__NotMinted",
      "type": "error"
    },
    {
      "inputs": [],
      "name": "Hat__TransferFailed",
      "type": "error"
    },
    {
      "inputs": [],
      "name": "Hat__ZeroAddress",
      "type": "error"
    },
    {
      "inputs": [
        {
          "internalType": "uint256",
          "name": "min",
          "type": "uint256"
        },
        {
          "internalType": "uint256",
          "name": "max",
          "type": "uint256"
        }
      ],
      "name": "PRNG__InvalidRange",
      "type": "error"
    },
    {
      "anonymous": false,
      "inputs": [
        {
          "indexed": true,
          "internalType": "address",
          "name": "owner",
          "type": "address"
        },
        {
          "indexed": true,
          "internalType": "address",
          "name": "approved",
          "type": "address"
        },
        {
          "indexed": true,
          "internalType": "uint256",
          "name": "tokenId",
          "type": "uint256"
        }
      ],
      "name": "Approval",
      "type": "event"
    },
    {
      "anonymous": false,
      "inputs": [
        {
          "indexed": true,
          "internalType": "address",
          "name": "owner",
          "type": "address"
        },
        {
          "indexed": true,
          "internalType": "address",
          "name": "operator",
          "type": "address"
        },
        {
          "indexed": false,
          "internalType": "bool",
          "name": "approved",
          "type": "bool"
        }
      ],
      "name": "ApprovalForAll",
      "type": "event"
    },
    {
      "anonymous": false,
      "inputs": [
        {
          "indexed": false,
          "internalType": "address",
          "name": "oldFeeCollector",
          "type": "address"
        },
        {
          "indexed": false,
          "internalType": "address",
          "name": "newFeeCollector",
          "type": "address"
        }
      ],
      "name": "FeeCollectorChanged",
      "type": "event"
    },
    {
      "anonymous": false,
      "inputs": [
        {
          "indexed": true,
          "internalType": "address",
          "name": "previousOwner",
          "type": "address"
        },
        {
          "indexed": true,
          "internalType": "address",
          "name": "newOwner",
          "type": "address"
        }
      ],
      "name": "OwnershipTransferred",
      "type": "event"
    },
    {
      "anonymous": false,
      "inputs": [
        {
          "indexed": true,
          "internalType": "address",
          "name": "from",
          "type": "address"
        },
        {
          "indexed": true,
          "internalType": "address",
          "name": "to",
          "type": "address"
        },
        {
          "indexed": true,
          "internalType": "uint256",
          "name": "tokenId",
          "type": "uint256"
        }
      ],
      "name": "Transfer",
      "type": "event"
    },
    {
      "inputs": [
        {
          "internalType": "address",
          "name": "to",
          "type": "address"
        },
        {
          "internalType": "uint256",
          "name": "tokenId",
          "type": "uint256"
        }
      ],
      "name": "approve",
      "outputs": [],
      "stateMutability": "nonpayable",
      "type": "function"
    },
    {
      "inputs": [
        {
          "internalType": "address",
          "name": "owner",
          "type": "address"
        }
      ],
      "name": "balanceOf",
      "outputs": [
        {
          "internalType": "uint256",
          "name": "",
          "type": "uint256"
        }
      ],
      "stateMutability": "view",
      "type": "function"
    },
    {
      "inputs": [
        {
          "internalType": "uint256",
          "name": "tokenId",
          "type": "uint256"
        }
      ],
      "name": "getApproved",
      "outputs": [
        {
          "internalType": "address",
          "name": "",
          "type": "address"
        }
      ],
      "stateMutability": "view",
      "type": "function"
    },
    {
      "inputs": [
        {
          "internalType": "uint256",
          "name": "tokenId",
          "type": "uint256"
        }
      ],
      "name": "getAttributes",
      "outputs": [
        {
          "components": [
            {
              "internalType": "string",
              "name": "color",
              "type": "string"
            }
          ],
          "internalType": "struct DataTypes.Hat",
          "name": "",
          "type": "tuple"
        }
      ],
      "stateMutability": "view",
      "type": "function"
    },
    {
      "inputs": [],
      "name": "getFeeCollector",
      "outputs": [
        {
          "internalType": "address",
          "name": "",
          "type": "address"
        }
      ],
      "stateMutability": "view",
      "type": "function"
    },
    {
      "inputs": [
        {
          "internalType": "address",
          "name": "owner",
          "type": "address"
        },
        {
          "internalType": "address",
          "name": "operator",
          "type": "address"
        }
      ],
      "name": "isApprovedForAll",
      "outputs": [
        {
          "internalType": "bool",
          "name": "",
          "type": "bool"
        }
      ],
      "stateMutability": "view",
      "type": "function"
    },
    {
      "inputs": [],
      "name": "mint",
      "outputs": [
        {
          "internalType": "uint256",
          "name": "",
          "type": "uint256"
        }
      ],
      "stateMutability": "payable",
      "type": "function"
    },
    {
      "inputs": [],
      "name": "name",
      "outputs": [
        {
          "internalType": "string",
          "name": "",
          "type": "string"
        }
      ],
      "stateMutability": "view",
      "type": "function"
    },
    {
      "inputs": [],
      "name": "owner",
      "outputs": [
        {
          "internalType": "address",
          "name": "",
          "type": "address"
        }
      ],
      "stateMutability": "view",
      "type": "function"
    },
    {
      "inputs": [
        {
          "internalType": "uint256",
          "name": "tokenId",
          "type": "uint256"
        }
      ],
      "name": "ownerOf",
      "outputs": [
        {
          "internalType": "address",
          "name": "",
          "type": "address"
        }
      ],
      "stateMutability": "view",
      "type": "function"
    },
    {
      "inputs": [
        {
          "internalType": "uint256",
          "name": "tokenId",
          "type": "uint256"
        }
      ],
      "name": "renderTokenById",
      "outputs": [
        {
          "internalType": "string",
          "name": "",
          "type": "string"
        }
      ],
      "stateMutability": "view",
      "type": "function"
    },
    {
      "inputs": [],
      "name": "renounceOwnership",
      "outputs": [],
      "stateMutability": "nonpayable",
      "type": "function"
    },
    {
      "inputs": [
        {
          "internalType": "address",
          "name": "from",
          "type": "address"
        },
        {
          "internalType": "address",
          "name": "to",
          "type": "address"
        },
        {
          "internalType": "uint256",
          "name": "tokenId",
          "type": "uint256"
        }
      ],
      "name": "safeTransferFrom",
      "outputs": [],
      "stateMutability": "nonpayable",
      "type": "function"
    },
    {
      "inputs": [
        {
          "internalType": "address",
          "name": "from",
          "type": "address"
        },
        {
          "internalType": "address",
          "name": "to",
          "type": "address"
        },
        {
          "internalType": "uint256",
          "name": "tokenId",
          "type": "uint256"
        },
        {
          "internalType": "bytes",
          "name": "data",
          "type": "bytes"
        }
      ],
      "name": "safeTransferFrom",
      "outputs": [],
      "stateMutability": "nonpayable",
      "type": "function"
    },
    {
      "inputs": [
        {
          "internalType": "address",
          "name": "operator",
          "type": "address"
        },
        {
          "internalType": "bool",
          "name": "approved",
          "type": "bool"
        }
      ],
      "name": "setApprovalForAll",
      "outputs": [],
      "stateMutability": "nonpayable",
      "type": "function"
    },
    {
      "inputs": [
        {
          "internalType": "address",
          "name": "newFeeCollector",
          "type": "address"
        }
      ],
      "name": "setFeeCollector",
      "outputs": [],
      "stateMutability": "nonpayable",
      "type": "function"
    },
    {
      "inputs": [
        {
          "internalType": "bytes4",
          "name": "interfaceId",
          "type": "bytes4"
        }
      ],
      "name": "supportsInterface",
      "outputs": [
        {
          "internalType": "bool",
          "name": "",
          "type": "bool"
        }
      ],
      "stateMutability": "view",
      "type": "function"
    },
    {
      "inputs": [],
      "name": "symbol",
      "outputs": [
        {
          "internalType": "string",
          "name": "",
          "type": "string"
        }
      ],
      "stateMutability": "view",
      "type": "function"
    },
    {
      "inputs": [
        {
          "internalType": "uint256",
          "name": "index",
          "type": "uint256"
        }
      ],
      "name": "tokenByIndex",
      "outputs": [
        {
          "internalType": "uint256",
          "name": "",
          "type": "uint256"
        }
      ],
      "stateMutability": "view",
      "type": "function"
    },
    {
      "inputs": [
        {
          "internalType": "address",
          "name": "owner",
          "type": "address"
        },
        {
          "internalType": "uint256",
          "name": "index",
          "type": "uint256"
        }
      ],
      "name": "tokenOfOwnerByIndex",
      "outputs": [
        {
          "internalType": "uint256",
          "name": "",
          "type": "uint256"
        }
      ],
      "stateMutability": "view",
      "type": "function"
    },
    {
      "inputs": [
        {
          "internalType": "uint256",
          "name": "tokenId",
          "type": "uint256"
        }
      ],
      "name": "tokenURI",
      "outputs": [
        {
          "internalType": "string",
          "name": "",
          "type": "string"
        }
      ],
      "stateMutability": "view",
      "type": "function"
    },
    {
      "inputs": [],
      "name": "totalSupply",
      "outputs": [
        {
          "internalType": "uint256",
          "name": "",
          "type": "uint256"
        }
      ],
      "stateMutability": "view",
      "type": "function"
    },
    {
      "inputs": [
        {
          "internalType": "address",
          "name": "from",
          "type": "address"
        },
        {
          "internalType": "address",
          "name": "to",
          "type": "address"
        },
        {
          "internalType": "uint256",
          "name": "tokenId",
          "type": "uint256"
        }
      ],
      "name": "transferFrom",
      "outputs": [],
      "stateMutability": "nonpayable",
      "type": "function"
    },
    {
      "inputs": [
        {
          "internalType": "address",
          "name": "newOwner",
          "type": "address"
        }
      ],
      "name": "transferOwnership",
      "outputs": [],
      "stateMutability": "nonpayable",
      "type": "function"
    }
  ],
  "transactionHash": "0xa05ed9b888afb6dd3a69495c09a0ddb9074f2a91574d3b78c5f52c7491be942e",
  "args": [
    "0xf39Fd6e51aad88F6F4ce6aB8827279cffFb92266"
  ],
  "numDeployments": 1,
  "solcInputHash": "f7c322bb55226d6d888297f97025c99b",
  "bytecode": "0x60806040523461038557604051601f6121a538819003918201601f19168301916001600160401b038311848410176102905780849260209460405283398101031261038557516001600160a01b038116908190036103855761005f61038a565b9061006861038a565b82519091906001600160401b03811161029057600054600181811c9116801561037b575b602082101461027057601f8111610317575b506020601f82116001146102b157819293946000926102a6575b50508160011b916000199060031b1c1916176000555b81516001600160401b03811161029057600154600181811c91168015610286575b602082101461027057601f811161020b575b50602092601f82116001146101a6579281929360009261019b575b50508160011b916000199060031b1c1916176001555b600a8054336001600160a01b0319821681179092556040519291906001600160a01b03167f8be0079c531659141344cd1fd0a4f28419497f9722a3daafe3b4186f6b6457e0600080a3600b80546001600160a01b031916919091179055611deb90816103ba8239f35b01519050388061011c565b601f198216936001600052806000209160005b8681106101f357508360019596106101da575b505050811b01600155610132565b015160001960f88460031b161c191690553880806101cc565b919260206001819286850151815501940192016101b9565b60016000527fb10e2d527612073b26eecdfd717e6a320cf44b4afac2b0732d9fcbe2b7fa0cf6601f830160051c81019160208410610266575b601f0160051c01905b81811061025a5750610101565b6000815560010161024d565b9091508190610244565b634e487b7160e01b600052602260045260246000fd5b90607f16906100ef565b634e487b7160e01b600052604160045260246000fd5b0151905038806100b8565b601f1982169060008052806000209160005b8181106102ff575095836001959697106102e6575b505050811b016000556100ce565b015160001960f88460031b161c191690553880806102d8565b9192602060018192868b0151815501940192016102c3565b600080527f290decd9548b62a8d60345a988386fc84ba6bc95484008f6362f93160ef3e563601f830160051c81019160208410610371575b601f0160051c01905b818110610365575061009e565b60008155600101610358565b909150819061034f565b90607f169061008c565b600080fd5b60408051919082016001600160401b0381118382101761029057604052600382526212185d60ea1b602083015256fe608080604052600436101561001357600080fd5b600090813560e01c90816301ffc9a7146110975750806306fdde031461100f578063081812fc14610ff0578063095ea7b314610e6c5780631249c58b146109f157806312fde4b7146109c857806318160ddd146109aa57806323b872dd146109805780632f745c59146108d357806342842e0e146108a95780634378a6e3146108355780634f6ccce7146107a25780636352211e1461077157806370a0823114610745578063715018a6146106e85780638da5cb5b146106bf57806395d89b41146105dc578063a22cb46514610506578063a2d6c6da14610479578063a42dce80146103d7578063b88d4fde14610342578063c87b56dd1461024e578063e985e9c5146101f45763f2fde38b1461012957600080fd5b346101f15760203660031901126101f157610142611166565b61014a6118f2565b6001600160a01b0316801561019d57600a80546001600160a01b0319811683179091556001600160a01b03167f8be0079c531659141344cd1fd0a4f28419497f9722a3daafe3b4186f6b6457e08380a380f35b60405162461bcd60e51b815260206004820152602660248201527f4f776e61626c653a206e6577206f776e657220697320746865207a65726f206160448201526564647265737360d01b6064820152608490fd5b80fd5b50346101f15760403660031901126101f1576040610210611166565b91610219611181565b9260018060a01b031681526005602052209060018060a01b0316600052602052602060ff604060002054166040519015158152f35b50346101f15760203660031901126101f1576004356000818152600260205260409020546001600160a01b03161561033357808252600d602052816102ba6040822060405193849283926304630ab560e21b845260406004850152602060448501526064840190611265565b906024830152038173e7f1725E7734CE288F8367e1Bb143E90bb3F05125af490811561032857826103019392610305575b5050604051918291602083526020830190611141565b0390f35b61032192503d8091833e61031981836111ed565b8101906114d2565b38806102eb565b6040513d84823e3d90fd5b6340737bc360e11b8252600482fd5b50346101f15760803660031901126101f15761035c611166565b610364611181565b906064359067ffffffffffffffff82116103d357366023830112156103d357816004013592846103938561120f565b936103a160405195866111ed565b85855236602487830101116103cf57856103cc96602460209301838801378501015260443591611531565b80f35b5080fd5b8380fd5b50346101f15760203660031901126101f1576103f1611166565b6103f96118f2565b600b546001600160a01b03808216921690811561046a5782821461045b576001600160a01b0319168117600b556040805192835260208301919091527f649c5e3d0ed183894196148e193af316452b0037e77d2ff0fef23b7dc722bed091a180f35b63490dc32d60e11b8452600484fd5b637f268bfd60e01b8452600484fd5b50346101f15760203660031901126101f1576004358152600d6020526104c681604081206040518093819263676d21cf60e01b835260206004840152602060248401526044830190611265565b038173e7f1725E7734CE288F8367e1Bb143E90bb3F05125af490811561032857826103019392610305575050604051918291602083526020830190611141565b50346101f15760403660031901126101f157610520611166565b602435908115158092036105d8576001600160a01b0316903382146105935733835260056020526040832082600052602052604060002060ff1981541660ff83161790556040519081527f17307eab39ab6107e8899845ad3d59bd9653f200f220920489ca2b5937696c3160203392a380f35b60405162461bcd60e51b815260206004820152601960248201527f4552433732313a20617070726f766520746f2063616c6c6572000000000000006044820152606490fd5b8280fd5b50346101f157806003193601126101f1576040519080600154906105ff8261122b565b8085529160018116908115610698575060011461063b575b61030184610627818603826111ed565b604051918291602083526020830190611141565b600181527fb10e2d527612073b26eecdfd717e6a320cf44b4afac2b0732d9fcbe2b7fa0cf6939250905b80821061067e5750909150810160200161062782610617565b919260018160209254838588010152019101909291610665565b60ff191660208087019190915292151560051b850190920192506106279150839050610617565b50346101f157806003193601126101f157600a546040516001600160a01b039091168152602090f35b50346101f157806003193601126101f1576107016118f2565b600a80546001600160a01b0319811690915581906001600160a01b03167f8be0079c531659141344cd1fd0a4f28419497f9722a3daafe3b4186f6b6457e08280a380f35b50346101f15760203660031901126101f1576020610769610764611166565b61145b565b604051908152f35b50346101f15760203660031901126101f1576020610790600435611435565b6040516001600160a01b039091168152f35b50346101f15760203660031901126101f1576004356008548110156107db576107cc6020916113b8565b90549060031b1c604051908152f35b60405162461bcd60e51b815260206004820152602c60248201527f455243373231456e756d657261626c653a20676c6f62616c20696e646578206f60448201526b7574206f6620626f756e647360a01b6064820152608490fd5b50346101f15760203660031901126101f1576040610301916060825161085a816111d1565b526004358152600d6020522061088561088c60405192610879846111d1565b60405192838092611265565b03826111ed565b815260405191829160208352516020808401526040830190611141565b50346101f1576103cc6108bb36611197565b90604051926108cb6020856111ed565b858452611531565b50346101f15760403660031901126101f1576108ed611166565b602435916108fa8261145b565b8310156109275760209260409260018060a01b031682526006845282822090825283522054604051908152f35b60405162461bcd60e51b815260206004820152602b60248201527f455243373231456e756d657261626c653a206f776e657220696e646578206f7560448201526a74206f6620626f756e647360a81b6064820152608490fd5b50346101f1576103cc61099236611197565b916109a56109a084336115c5565b611356565b611698565b50346101f157806003193601126101f1576020600854604051908152f35b50346101f157806003193601126101f157600b546040516001600160a01b039091168152602090f35b50806003193601126101f157662386f26fc100003410610e5d576001600c54019081600c553315610e1957600082815260026020526040902054610a41906001600160a01b031615155b15611579565b6008548282526009602052806040832055600160401b811015610e055782610a72826001610a8b94016008556113b8565b90919082549060031b91821b91600019901b1916179055565b610a943361145b565b33825260066020526040822081835260205282604083205582825260076020526040822055610adb610a3b83600052600260205260018060a01b0360406000205416151590565b33808252600360209081526040808420805460010190558484526002909152822080546001600160a01b03191682179055829082600080516020611d968339815191528180a4608060405191610b326080846111ed565b608036843780600019430190438211903360601b933060601b934095606580155b60038410610d6f575050505080610d5b5750610d455760405191602083019342855260408401526060830152607482015260688152610b936088826111ed565b519020600890069060038201809211610d4557610bc691606082019081528151916040602082015191015191519261199d565b9060405191610bd4836111d1565b825280600052600d6020526040600020915191825167ffffffffffffffff8111610d2f57610c02825461122b565b601f8111610ce7575b506020601f8211600114610c825781929394600092610c77575b50508160011b916000199060031b1c19161790555b60008080803460018060a01b03600a54165af1610c55611326565b5015610c6657602090604051908152f35b6363ad91b560e01b60005260046000fd5b015190503880610c25565b601f1982169083600052806000209160005b818110610ccf57509583600195969710610cb6575b505050811b019055610c3a565b015160001960f88460031b161c19169055388080610ca9565b9192602060018192868b015181550194019201610c94565b826000526020600020601f830160051c81019160208410610d25575b601f0160051c01905b818110610d195750610c0b565b60008155600101610d0c565b9091508190610d03565b634e487b7160e01b600052604160045260246000fd5b634e487b7160e01b600052601160045260246000fd5b634e487b7160e01b81526011600452602490fd5b9091929380610d5b575084610d45576040516020810190858252426040820152896060820152888582015287609482015260888152610daf60a8826111ed565b519020600082610df15750829006936000946004821015610ddd57600582901b8b0152600101929190610b53565b634e487b7160e01b86526032600452602486fd5b634e487b7160e01b81526012600452602490fd5b634e487b7160e01b82526041600452602482fd5b606460405162461bcd60e51b815260206004820152602060248201527f4552433732313a206d696e7420746f20746865207a65726f20616464726573736044820152fd5b6364162ccb60e11b8152600490fd5b50346101f15760403660031901126101f157610e86611166565b602435906001600160a01b03610e9b83611435565b6001600160a01b039092169116818114610fa157803314908115610f80575b5015610f155781835260046020526040832080546001600160a01b031916821790556001600160a01b03610eed83611435565b167f8c5be1e5ebec7d5bd14f71427d1e84f3dd0314c0f7b2291e5b200ac8c7c3b9258480a480f35b60405162461bcd60e51b815260206004820152603d60248201527f4552433732313a20617070726f76652063616c6c6572206973206e6f7420746f60448201527f6b656e206f776e6572206f7220617070726f76656420666f7220616c6c0000006064820152608490fd5b84525060056020908152604080852033865290915283205460ff1638610eba565b60405162461bcd60e51b815260206004820152602160248201527f4552433732313a20617070726f76616c20746f2063757272656e74206f776e656044820152603960f91b6064820152608490fd5b50346101f15760203660031901126101f15760206107906004356112e8565b50346101f157806003193601126101f15760405190808054906110318261122b565b808552916001811690811561069857506001146110585761030184610627818603826111ed565b80805260208120939250905b80821061107d5750909150810160200161062782610617565b919260018160209254838588010152019101909291611064565b9050346103cf5760203660031901126103cf5760043563ffffffff60e01b81168091036105d8576020925063780e9d6360e01b81149081156110db575b5015158152f35b6380ac58cd60e01b81149150811561110d575b81156110fc575b50386110d4565b6301ffc9a760e01b149050386110f5565b635b5e139f60e01b811491506110ee565b60005b8381106111315750506000910152565b8181015183820152602001611121565b9060209161115a8151809281855285808601910161111e565b601f01601f1916010190565b600435906001600160a01b038216820361117c57565b600080fd5b602435906001600160a01b038216820361117c57565b606090600319011261117c576004356001600160a01b038116810361117c57906024356001600160a01b038116810361117c579060443590565b6020810190811067ffffffffffffffff821117610d2f57604052565b90601f8019910116810190811067ffffffffffffffff821117610d2f57604052565b67ffffffffffffffff8111610d2f57601f01601f191660200190565b90600182811c9216801561125b575b602083101461124557565b634e487b7160e01b600052602260045260246000fd5b91607f169161123a565b600092918154916112758361122b565b80835292600181169081156112cb575060011461129157505050565b60009081526020812093945091925b8383106112b1575060209250010190565b6001816020929493945483858701015201910191906112a0565b915050602093945060ff929192191683830152151560051b010190565b60008181526002602052604090205461130b906001600160a01b031615156113e9565b6000908152600460205260409020546001600160a01b031690565b3d15611351573d906113378261120f565b9161134560405193846111ed565b82523d6000602084013e565b606090565b1561135d57565b60405162461bcd60e51b815260206004820152602d60248201527f4552433732313a2063616c6c6572206973206e6f7420746f6b656e206f776e6560448201526c1c881bdc88185c1c1c9bdd9959609a1b6064820152608490fd5b6008548110156113d357600860005260206000200190600090565b634e487b7160e01b600052603260045260246000fd5b156113f057565b60405162461bcd60e51b815260206004820152601860248201527f4552433732313a20696e76616c696420746f6b656e20494400000000000000006044820152606490fd5b6000908152600260205260409020546001600160a01b03166114588115156113e9565b90565b6001600160a01b0316801561147b57600052600360205260406000205490565b60405162461bcd60e51b815260206004820152602960248201527f4552433732313a2061646472657373207a65726f206973206e6f7420612076616044820152683634b21037bbb732b960b91b6064820152608490fd5b60208183031261117c5780519067ffffffffffffffff821161117c570181601f8201121561117c5780516115058161120f565b9261151360405194856111ed565b8184526020828401011161117c57611458916020808501910161111e565b906115559392916115456109a084336115c5565b611550838383611698565b611b29565b1561155c57565b60405162461bcd60e51b8152806115756004820161194a565b0390fd5b1561158057565b60405162461bcd60e51b815260206004820152601c60248201527f4552433732313a20746f6b656e20616c7265616479206d696e746564000000006044820152606490fd5b906001600160a01b036115d782611435565b6001600160a01b0390931692168281149291908315611617575b5082156115fd57505090565b9091506001600160a01b0390611612906112e8565b161490565b909250600052600560205260406000208160005260205260ff6040600020541691386115f1565b1561164557565b60405162461bcd60e51b815260206004820152602560248201527f4552433732313a207472616e736665722066726f6d20696e636f72726563742060448201526437bbb732b960d91b6064820152608490fd5b906116a283611435565b6001600160a01b0383811692916116bb9116831461163e565b6001600160a01b0381169283156118a157826117e057506008549084600052600960205281604060002055600160401b821015610d2f5761171585610a72846001600080516020611d9683398151915296016008556113b8565b6000908385036117ac575b5061173d836001600160a01b0361173688611435565b161461163e565b8481526004602052604081206bffffffffffffffffffffffff60a01b8154169055828152600360205260408120600019815401905583815260036020526040812060018154019055848152600260205260408120846bffffffffffffffffffffffff60a01b82541617905580a4565b6117b59061145b565b8482526006602052604082208183526020528560408320558582526007602052604082205538611720565b8383036117fe575b50600080516020611d9683398151915290611715565b6118079061145b565b600019810191908211610d4557600080516020611d968339815191529185600052600760205260406000205481810361186e575b508560005260076020526000604081205583600052600660205260406000209060005260205260006040812055906117e8565b6000858152600660209081526040808320858452825280832054848452818420819055835260079091529020553861183b565b60405162461bcd60e51b8152602060048201526024808201527f4552433732313a207472616e7366657220746f20746865207a65726f206164646044820152637265737360e01b6064820152608490fd5b600a546001600160a01b0316330361190657565b606460405162461bcd60e51b815260206004820152602060248201527f4f776e61626c653a2063616c6c6572206973206e6f7420746865206f776e65726044820152fd5b60809060208152603260208201527f4552433732313a207472616e7366657220746f206e6f6e20455243373231526560408201527131b2b4bb32b91034b6b83632b6b2b73a32b960711b60608201520190565b9192600a811015611a8157600191600360059260026119d96119d36119cd6119c76114589a611c26565b96611c26565b99611c26565b92611c26565b916025604051998a96640d0e6d8c2560db1b6020890152611a03815180926020868c01910161111e565b870161016160f51b83820152611a2382518093602060278501910161111e565b01016201296160ed1b83820152611a438251809360208a8501910161111e565b010164129610181760d91b83820152611a6682518093602060088501910161111e565b0101602960f81b838201520301601e198101845201826111ed565b5060036005916002611aa16119c7611a9b61145897611c26565b93611c26565b6025604051978894640d0e6d8c2560db1b6020870152611aca815180926020868a01910161111e565b850161016160f51b83820152611aea82518093602060278501910161111e565b01016201296160ed1b83820152611b0a825180936020898501910161111e565b010164252c20312960d81b838201520301601a198101845201826111ed565b919290803b15611c1d57611b7993600060209460405196879586948593630a85bd0160e11b855233600486015260018060a01b031660248501526044840152608060648401526084830190611141565b03926001600160a01b03165af18091600091611bda575b5090611bc457611b9e611326565b80519081611bbf5760405162461bcd60e51b8152806115756004820161194a565b602001fd5b6001600160e01b031916630a85bd0160e11b1490565b6020813d602011611c15575b81611bf3602093836111ed565b810103126103cf5751906001600160e01b0319821682036101f1575038611b90565b3d9150611be6565b50505050600190565b8060009172184f03e93ff9f4daa797ed6e38ed64bf6a1f0160401b821015611d72575b806d04ee2d6d415b85acef8100000000600a921015611d57575b662386f26fc10000811015611d43575b6305f5e100811015611d32575b612710811015611d23575b6064811015611d15575b1015611d0a575b600a60216001840193611cae8561120f565b94611cbc60405196876111ed565b808652611ccb601f199161120f565b013660208701378401015b60001901916f181899199a1a9b1b9c1cb0b131b232b360811b8282061a8353048015611d0557600a9091611cd6565b505090565b600190910190611c9c565b606460029104930192611c95565b61271060049104930192611c8b565b6305f5e10060089104930192611c80565b662386f26fc1000060109104930192611c73565b6d04ee2d6d415b85acef810000000060209104930192611c63565b506040915072184f03e93ff9f4daa797ed6e38ed64bf6a1f0160401b8104611c4956feddf252ad1be2c89b69c2b068fc378daa952ba7f163c4a11628f55a4df523b3efa264697066735822122096d8d9eb2c7debfe6ff7af72cb9566e44391c94d44bc770a6a23e393b267c8e764736f6c634300081c0033",
  "deployedBytecode": "0x608080604052600436101561001357600080fd5b600090813560e01c90816301ffc9a7146110975750806306fdde031461100f578063081812fc14610ff0578063095ea7b314610e6c5780631249c58b146109f157806312fde4b7146109c857806318160ddd146109aa57806323b872dd146109805780632f745c59146108d357806342842e0e146108a95780634378a6e3146108355780634f6ccce7146107a25780636352211e1461077157806370a0823114610745578063715018a6146106e85780638da5cb5b146106bf57806395d89b41146105dc578063a22cb46514610506578063a2d6c6da14610479578063a42dce80146103d7578063b88d4fde14610342578063c87b56dd1461024e578063e985e9c5146101f45763f2fde38b1461012957600080fd5b346101f15760203660031901126101f157610142611166565b61014a6118f2565b6001600160a01b0316801561019d57600a80546001600160a01b0319811683179091556001600160a01b03167f8be0079c531659141344cd1fd0a4f28419497f9722a3daafe3b4186f6b6457e08380a380f35b60405162461bcd60e51b815260206004820152602660248201527f4f776e61626c653a206e6577206f776e657220697320746865207a65726f206160448201526564647265737360d01b6064820152608490fd5b80fd5b50346101f15760403660031901126101f1576040610210611166565b91610219611181565b9260018060a01b031681526005602052209060018060a01b0316600052602052602060ff604060002054166040519015158152f35b50346101f15760203660031901126101f1576004356000818152600260205260409020546001600160a01b03161561033357808252600d602052816102ba6040822060405193849283926304630ab560e21b845260406004850152602060448501526064840190611265565b906024830152038173__$06d5934c1fce4bc055f69676a2758198b6$__5af490811561032857826103019392610305575b5050604051918291602083526020830190611141565b0390f35b61032192503d8091833e61031981836111ed565b8101906114d2565b38806102eb565b6040513d84823e3d90fd5b6340737bc360e11b8252600482fd5b50346101f15760803660031901126101f15761035c611166565b610364611181565b906064359067ffffffffffffffff82116103d357366023830112156103d357816004013592846103938561120f565b936103a160405195866111ed565b85855236602487830101116103cf57856103cc96602460209301838801378501015260443591611531565b80f35b5080fd5b8380fd5b50346101f15760203660031901126101f1576103f1611166565b6103f96118f2565b600b546001600160a01b03808216921690811561046a5782821461045b576001600160a01b0319168117600b556040805192835260208301919091527f649c5e3d0ed183894196148e193af316452b0037e77d2ff0fef23b7dc722bed091a180f35b63490dc32d60e11b8452600484fd5b637f268bfd60e01b8452600484fd5b50346101f15760203660031901126101f1576004358152600d6020526104c681604081206040518093819263676d21cf60e01b835260206004840152602060248401526044830190611265565b038173__$06d5934c1fce4bc055f69676a2758198b6$__5af490811561032857826103019392610305575050604051918291602083526020830190611141565b50346101f15760403660031901126101f157610520611166565b602435908115158092036105d8576001600160a01b0316903382146105935733835260056020526040832082600052602052604060002060ff1981541660ff83161790556040519081527f17307eab39ab6107e8899845ad3d59bd9653f200f220920489ca2b5937696c3160203392a380f35b60405162461bcd60e51b815260206004820152601960248201527f4552433732313a20617070726f766520746f2063616c6c6572000000000000006044820152606490fd5b8280fd5b50346101f157806003193601126101f1576040519080600154906105ff8261122b565b8085529160018116908115610698575060011461063b575b61030184610627818603826111ed565b604051918291602083526020830190611141565b600181527fb10e2d527612073b26eecdfd717e6a320cf44b4afac2b0732d9fcbe2b7fa0cf6939250905b80821061067e5750909150810160200161062782610617565b919260018160209254838588010152019101909291610665565b60ff191660208087019190915292151560051b850190920192506106279150839050610617565b50346101f157806003193601126101f157600a546040516001600160a01b039091168152602090f35b50346101f157806003193601126101f1576107016118f2565b600a80546001600160a01b0319811690915581906001600160a01b03167f8be0079c531659141344cd1fd0a4f28419497f9722a3daafe3b4186f6b6457e08280a380f35b50346101f15760203660031901126101f1576020610769610764611166565b61145b565b604051908152f35b50346101f15760203660031901126101f1576020610790600435611435565b6040516001600160a01b039091168152f35b50346101f15760203660031901126101f1576004356008548110156107db576107cc6020916113b8565b90549060031b1c604051908152f35b60405162461bcd60e51b815260206004820152602c60248201527f455243373231456e756d657261626c653a20676c6f62616c20696e646578206f60448201526b7574206f6620626f756e647360a01b6064820152608490fd5b50346101f15760203660031901126101f1576040610301916060825161085a816111d1565b526004358152600d6020522061088561088c60405192610879846111d1565b60405192838092611265565b03826111ed565b815260405191829160208352516020808401526040830190611141565b50346101f1576103cc6108bb36611197565b90604051926108cb6020856111ed565b858452611531565b50346101f15760403660031901126101f1576108ed611166565b602435916108fa8261145b565b8310156109275760209260409260018060a01b031682526006845282822090825283522054604051908152f35b60405162461bcd60e51b815260206004820152602b60248201527f455243373231456e756d657261626c653a206f776e657220696e646578206f7560448201526a74206f6620626f756e647360a81b6064820152608490fd5b50346101f1576103cc61099236611197565b916109a56109a084336115c5565b611356565b611698565b50346101f157806003193601126101f1576020600854604051908152f35b50346101f157806003193601126101f157600b546040516001600160a01b039091168152602090f35b50806003193601126101f157662386f26fc100003410610e5d576001600c54019081600c553315610e1957600082815260026020526040902054610a41906001600160a01b031615155b15611579565b6008548282526009602052806040832055600160401b811015610e055782610a72826001610a8b94016008556113b8565b90919082549060031b91821b91600019901b1916179055565b610a943361145b565b33825260066020526040822081835260205282604083205582825260076020526040822055610adb610a3b83600052600260205260018060a01b0360406000205416151590565b33808252600360209081526040808420805460010190558484526002909152822080546001600160a01b03191682179055829082600080516020611d968339815191528180a4608060405191610b326080846111ed565b608036843780600019430190438211903360601b933060601b934095606580155b60038410610d6f575050505080610d5b5750610d455760405191602083019342855260408401526060830152607482015260688152610b936088826111ed565b519020600890069060038201809211610d4557610bc691606082019081528151916040602082015191015191519261199d565b9060405191610bd4836111d1565b825280600052600d6020526040600020915191825167ffffffffffffffff8111610d2f57610c02825461122b565b601f8111610ce7575b506020601f8211600114610c825781929394600092610c77575b50508160011b916000199060031b1c19161790555b60008080803460018060a01b03600a54165af1610c55611326565b5015610c6657602090604051908152f35b6363ad91b560e01b60005260046000fd5b015190503880610c25565b601f1982169083600052806000209160005b818110610ccf57509583600195969710610cb6575b505050811b019055610c3a565b015160001960f88460031b161c19169055388080610ca9565b9192602060018192868b015181550194019201610c94565b826000526020600020601f830160051c81019160208410610d25575b601f0160051c01905b818110610d195750610c0b565b60008155600101610d0c565b9091508190610d03565b634e487b7160e01b600052604160045260246000fd5b634e487b7160e01b600052601160045260246000fd5b634e487b7160e01b81526011600452602490fd5b9091929380610d5b575084610d45576040516020810190858252426040820152896060820152888582015287609482015260888152610daf60a8826111ed565b519020600082610df15750829006936000946004821015610ddd57600582901b8b0152600101929190610b53565b634e487b7160e01b86526032600452602486fd5b634e487b7160e01b81526012600452602490fd5b634e487b7160e01b82526041600452602482fd5b606460405162461bcd60e51b815260206004820152602060248201527f4552433732313a206d696e7420746f20746865207a65726f20616464726573736044820152fd5b6364162ccb60e11b8152600490fd5b50346101f15760403660031901126101f157610e86611166565b602435906001600160a01b03610e9b83611435565b6001600160a01b039092169116818114610fa157803314908115610f80575b5015610f155781835260046020526040832080546001600160a01b031916821790556001600160a01b03610eed83611435565b167f8c5be1e5ebec7d5bd14f71427d1e84f3dd0314c0f7b2291e5b200ac8c7c3b9258480a480f35b60405162461bcd60e51b815260206004820152603d60248201527f4552433732313a20617070726f76652063616c6c6572206973206e6f7420746f60448201527f6b656e206f776e6572206f7220617070726f76656420666f7220616c6c0000006064820152608490fd5b84525060056020908152604080852033865290915283205460ff1638610eba565b60405162461bcd60e51b815260206004820152602160248201527f4552433732313a20617070726f76616c20746f2063757272656e74206f776e656044820152603960f91b6064820152608490fd5b50346101f15760203660031901126101f15760206107906004356112e8565b50346101f157806003193601126101f15760405190808054906110318261122b565b808552916001811690811561069857506001146110585761030184610627818603826111ed565b80805260208120939250905b80821061107d5750909150810160200161062782610617565b919260018160209254838588010152019101909291611064565b9050346103cf5760203660031901126103cf5760043563ffffffff60e01b81168091036105d8576020925063780e9d6360e01b81149081156110db575b5015158152f35b6380ac58cd60e01b81149150811561110d575b81156110fc575b50386110d4565b6301ffc9a760e01b149050386110f5565b635b5e139f60e01b811491506110ee565b60005b8381106111315750506000910152565b8181015183820152602001611121565b9060209161115a8151809281855285808601910161111e565b601f01601f1916010190565b600435906001600160a01b038216820361117c57565b600080fd5b602435906001600160a01b038216820361117c57565b606090600319011261117c576004356001600160a01b038116810361117c57906024356001600160a01b038116810361117c579060443590565b6020810190811067ffffffffffffffff821117610d2f57604052565b90601f8019910116810190811067ffffffffffffffff821117610d2f57604052565b67ffffffffffffffff8111610d2f57601f01601f191660200190565b90600182811c9216801561125b575b602083101461124557565b634e487b7160e01b600052602260045260246000fd5b91607f169161123a565b600092918154916112758361122b565b80835292600181169081156112cb575060011461129157505050565b60009081526020812093945091925b8383106112b1575060209250010190565b6001816020929493945483858701015201910191906112a0565b915050602093945060ff929192191683830152151560051b010190565b60008181526002602052604090205461130b906001600160a01b031615156113e9565b6000908152600460205260409020546001600160a01b031690565b3d15611351573d906113378261120f565b9161134560405193846111ed565b82523d6000602084013e565b606090565b1561135d57565b60405162461bcd60e51b815260206004820152602d60248201527f4552433732313a2063616c6c6572206973206e6f7420746f6b656e206f776e6560448201526c1c881bdc88185c1c1c9bdd9959609a1b6064820152608490fd5b6008548110156113d357600860005260206000200190600090565b634e487b7160e01b600052603260045260246000fd5b156113f057565b60405162461bcd60e51b815260206004820152601860248201527f4552433732313a20696e76616c696420746f6b656e20494400000000000000006044820152606490fd5b6000908152600260205260409020546001600160a01b03166114588115156113e9565b90565b6001600160a01b0316801561147b57600052600360205260406000205490565b60405162461bcd60e51b815260206004820152602960248201527f4552433732313a2061646472657373207a65726f206973206e6f7420612076616044820152683634b21037bbb732b960b91b6064820152608490fd5b60208183031261117c5780519067ffffffffffffffff821161117c570181601f8201121561117c5780516115058161120f565b9261151360405194856111ed565b8184526020828401011161117c57611458916020808501910161111e565b906115559392916115456109a084336115c5565b611550838383611698565b611b29565b1561155c57565b60405162461bcd60e51b8152806115756004820161194a565b0390fd5b1561158057565b60405162461bcd60e51b815260206004820152601c60248201527f4552433732313a20746f6b656e20616c7265616479206d696e746564000000006044820152606490fd5b906001600160a01b036115d782611435565b6001600160a01b0390931692168281149291908315611617575b5082156115fd57505090565b9091506001600160a01b0390611612906112e8565b161490565b909250600052600560205260406000208160005260205260ff6040600020541691386115f1565b1561164557565b60405162461bcd60e51b815260206004820152602560248201527f4552433732313a207472616e736665722066726f6d20696e636f72726563742060448201526437bbb732b960d91b6064820152608490fd5b906116a283611435565b6001600160a01b0383811692916116bb9116831461163e565b6001600160a01b0381169283156118a157826117e057506008549084600052600960205281604060002055600160401b821015610d2f5761171585610a72846001600080516020611d9683398151915296016008556113b8565b6000908385036117ac575b5061173d836001600160a01b0361173688611435565b161461163e565b8481526004602052604081206bffffffffffffffffffffffff60a01b8154169055828152600360205260408120600019815401905583815260036020526040812060018154019055848152600260205260408120846bffffffffffffffffffffffff60a01b82541617905580a4565b6117b59061145b565b8482526006602052604082208183526020528560408320558582526007602052604082205538611720565b8383036117fe575b50600080516020611d9683398151915290611715565b6118079061145b565b600019810191908211610d4557600080516020611d968339815191529185600052600760205260406000205481810361186e575b508560005260076020526000604081205583600052600660205260406000209060005260205260006040812055906117e8565b6000858152600660209081526040808320858452825280832054848452818420819055835260079091529020553861183b565b60405162461bcd60e51b8152602060048201526024808201527f4552433732313a207472616e7366657220746f20746865207a65726f206164646044820152637265737360e01b6064820152608490fd5b600a546001600160a01b0316330361190657565b606460405162461bcd60e51b815260206004820152602060248201527f4f776e61626c653a2063616c6c6572206973206e6f7420746865206f776e65726044820152fd5b60809060208152603260208201527f4552433732313a207472616e7366657220746f206e6f6e20455243373231526560408201527131b2b4bb32b91034b6b83632b6b2b73a32b960711b60608201520190565b9192600a811015611a8157600191600360059260026119d96119d36119cd6119c76114589a611c26565b96611c26565b99611c26565b92611c26565b916025604051998a96640d0e6d8c2560db1b6020890152611a03815180926020868c01910161111e565b870161016160f51b83820152611a2382518093602060278501910161111e565b01016201296160ed1b83820152611a438251809360208a8501910161111e565b010164129610181760d91b83820152611a6682518093602060088501910161111e565b0101602960f81b838201520301601e198101845201826111ed565b5060036005916002611aa16119c7611a9b61145897611c26565b93611c26565b6025604051978894640d0e6d8c2560db1b6020870152611aca815180926020868a01910161111e565b850161016160f51b83820152611aea82518093602060278501910161111e565b01016201296160ed1b83820152611b0a825180936020898501910161111e565b010164252c20312960d81b838201520301601a198101845201826111ed565b919290803b15611c1d57611b7993600060209460405196879586948593630a85bd0160e11b855233600486015260018060a01b031660248501526044840152608060648401526084830190611141565b03926001600160a01b03165af18091600091611bda575b5090611bc457611b9e611326565b80519081611bbf5760405162461bcd60e51b8152806115756004820161194a565b602001fd5b6001600160e01b031916630a85bd0160e11b1490565b6020813d602011611c15575b81611bf3602093836111ed565b810103126103cf5751906001600160e01b0319821682036101f1575038611b90565b3d9150611be6565b50505050600190565b8060009172184f03e93ff9f4daa797ed6e38ed64bf6a1f0160401b821015611d72575b806d04ee2d6d415b85acef8100000000600a921015611d57575b662386f26fc10000811015611d43575b6305f5e100811015611d32575b612710811015611d23575b6064811015611d15575b1015611d0a575b600a60216001840193611cae8561120f565b94611cbc60405196876111ed565b808652611ccb601f199161120f565b013660208701378401015b60001901916f181899199a1a9b1b9c1cb0b131b232b360811b8282061a8353048015611d0557600a9091611cd6565b505090565b600190910190611c9c565b606460029104930192611c95565b61271060049104930192611c8b565b6305f5e10060089104930192611c80565b662386f26fc1000060109104930192611c73565b6d04ee2d6d415b85acef810000000060209104930192611c63565b506040915072184f03e93ff9f4daa797ed6e38ed64bf6a1f0160401b8104611c4956feddf252ad1be2c89b69c2b068fc378daa952ba7f163c4a11628f55a4df523b3efa264697066735822122096d8d9eb2c7debfe6ff7af72cb9566e44391c94d44bc770a6a23e393b267c8e764736f6c634300081c0033",
  "libraries": {
    "HatMetadata": "0xe7f1725E7734CE288F8367e1Bb143E90bb3F0512"
  },
  "devdoc": {
    "events": {
      "Approval(address,address,uint256)": {
        "details": "Emitted when `owner` enables `approved` to manage the `tokenId` token."
      },
      "ApprovalForAll(address,address,bool)": {
        "details": "Emitted when `owner` enables or disables (`approved`) `operator` to manage all of its assets."
      },
      "Transfer(address,address,uint256)": {
        "details": "Emitted when `tokenId` token is transferred from `from` to `to`."
      }
    },
    "kind": "dev",
    "methods": {
      "approve(address,uint256)": {
        "details": "See {IERC721-approve}."
      },
      "balanceOf(address)": {
        "details": "See {IERC721-balanceOf}."
      },
      "getApproved(uint256)": {
        "details": "See {IERC721-getApproved}."
      },
      "isApprovedForAll(address,address)": {
        "details": "See {IERC721-isApprovedForAll}."
      },
      "name()": {
        "details": "See {IERC721Metadata-name}."
      },
      "owner()": {
        "details": "Returns the address of the current owner."
      },
      "ownerOf(uint256)": {
        "details": "See {IERC721-ownerOf}."
      },
      "renounceOwnership()": {
        "details": "Leaves the contract without owner. It will not be possible to call `onlyOwner` functions anymore. Can only be called by the current owner. NOTE: Renouncing ownership will leave the contract without an owner, thereby removing any functionality that is only available to the owner."
      },
      "safeTransferFrom(address,address,uint256)": {
        "details": "See {IERC721-safeTransferFrom}."
      },
      "safeTransferFrom(address,address,uint256,bytes)": {
        "details": "See {IERC721-safeTransferFrom}."
      },
      "setApprovalForAll(address,bool)": {
        "details": "See {IERC721-setApprovalForAll}."
      },
      "supportsInterface(bytes4)": {
        "details": "See {IERC165-supportsInterface}."
      },
      "symbol()": {
        "details": "See {IERC721Metadata-symbol}."
      },
      "tokenByIndex(uint256)": {
        "details": "See {IERC721Enumerable-tokenByIndex}."
      },
      "tokenOfOwnerByIndex(address,uint256)": {
        "details": "See {IERC721Enumerable-tokenOfOwnerByIndex}."
      },
      "tokenURI(uint256)": {
        "details": "See {IERC721Metadata-tokenURI}."
      },
      "totalSupply()": {
        "details": "See {IERC721Enumerable-totalSupply}."
      },
      "transferFrom(address,address,uint256)": {
        "details": "See {IERC721-transferFrom}."
      },
      "transferOwnership(address)": {
        "details": "Transfers ownership of the contract to a new account (`newOwner`). Can only be called by the current owner."
      }
    },
    "version": 1
  },
  "userdoc": {
    "kind": "user",
    "methods": {},
    "version": 1
  },
  "storageLayout": {
    "storage": [
      {
        "astId": 144,
        "contract": "contracts/accessories/Hat.sol:Hat",
        "label": "_name",
        "offset": 0,
        "slot": "0",
        "type": "t_string_storage"
      },
      {
        "astId": 146,
        "contract": "contracts/accessories/Hat.sol:Hat",
        "label": "_symbol",
        "offset": 0,
        "slot": "1",
        "type": "t_string_storage"
      },
      {
        "astId": 150,
        "contract": "contracts/accessories/Hat.sol:Hat",
        "label": "_owners",
        "offset": 0,
        "slot": "2",
        "type": "t_mapping(t_uint256,t_address)"
      },
      {
        "astId": 154,
        "contract": "contracts/accessories/Hat.sol:Hat",
        "label": "_balances",
        "offset": 0,
        "slot": "3",
        "type": "t_mapping(t_address,t_uint256)"
      },
      {
        "astId": 158,
        "contract": "contracts/accessories/Hat.sol:Hat",
        "label": "_tokenApprovals",
        "offset": 0,
        "slot": "4",
        "type": "t_mapping(t_uint256,t_address)"
      },
      {
        "astId": 164,
        "contract": "contracts/accessories/Hat.sol:Hat",
        "label": "_operatorApprovals",
        "offset": 0,
        "slot": "5",
        "type": "t_mapping(t_address,t_mapping(t_address,t_bool))"
      },
      {
        "astId": 1212,
        "contract": "contracts/accessories/Hat.sol:Hat",
        "label": "_ownedTokens",
        "offset": 0,
        "slot": "6",
        "type": "t_mapping(t_address,t_mapping(t_uint256,t_uint256))"
      },
      {
        "astId": 1216,
        "contract": "contracts/accessories/Hat.sol:Hat",
        "label": "_ownedTokensIndex",
        "offset": 0,
        "slot": "7",
        "type": "t_mapping(t_uint256,t_uint256)"
      },
      {
        "astId": 1219,
        "contract": "contracts/accessories/Hat.sol:Hat",
        "label": "_allTokens",
        "offset": 0,
        "slot": "8",
        "type": "t_array(t_uint256)dyn_storage"
      },
      {
        "astId": 1223,
        "contract": "contracts/accessories/Hat.sol:Hat",
        "label": "_allTokensIndex",
        "offset": 0,
        "slot": "9",
        "type": "t_mapping(t_uint256,t_uint256)"
      },
      {
        "astId": 7,
        "contract": "contracts/accessories/Hat.sol:Hat",
        "label": "_owner",
        "offset": 0,
        "slot": "10",
        "type": "t_address"
      },
      {
        "astId": 4094,
        "contract": "contracts/accessories/Hat.sol:Hat",
        "label": "s_feeCollector",
        "offset": 0,
        "slot": "11",
        "type": "t_address"
      },
      {
        "astId": 4097,
        "contract": "contracts/accessories/Hat.sol:Hat",
        "label": "s_tokenIds",
        "offset": 0,
        "slot": "12",
        "type": "t_struct(Counter)1967_storage"
      },
      {
        "astId": 4102,
        "contract": "contracts/accessories/Hat.sol:Hat",
        "label": "s_attributes",
        "offset": 0,
        "slot": "13",
        "type": "t_mapping(t_uint256,t_struct(Hat)6570_storage)"
      }
    ],
    "types": {
      "t_address": {
        "encoding": "inplace",
        "label": "address",
        "numberOfBytes": "20"
      },
      "t_array(t_uint256)dyn_storage": {
        "base": "t_uint256",
        "encoding": "dynamic_array",
        "label": "uint256[]",
        "numberOfBytes": "32"
      },
      "t_bool": {
        "encoding": "inplace",
        "label": "bool",
        "numberOfBytes": "1"
      },
      "t_mapping(t_address,t_bool)": {
        "encoding": "mapping",
        "key": "t_address",
        "label": "mapping(address => bool)",
        "numberOfBytes": "32",
        "value": "t_bool"
      },
      "t_mapping(t_address,t_mapping(t_address,t_bool))": {
        "encoding": "mapping",
        "key": "t_address",
        "label": "mapping(address => mapping(address => bool))",
        "numberOfBytes": "32",
        "value": "t_mapping(t_address,t_bool)"
      },
      "t_mapping(t_address,t_mapping(t_uint256,t_uint256))": {
        "encoding": "mapping",
        "key": "t_address",
        "label": "mapping(address => mapping(uint256 => uint256))",
        "numberOfBytes": "32",
        "value": "t_mapping(t_uint256,t_uint256)"
      },
      "t_mapping(t_address,t_uint256)": {
        "encoding": "mapping",
        "key": "t_address",
        "label": "mapping(address => uint256)",
        "numberOfBytes": "32",
        "value": "t_uint256"
      },
      "t_mapping(t_uint256,t_address)": {
        "encoding": "mapping",
        "key": "t_uint256",
        "label": "mapping(uint256 => address)",
        "numberOfBytes": "32",
        "value": "t_address"
      },
      "t_mapping(t_uint256,t_struct(Hat)6570_storage)": {
        "encoding": "mapping",
        "key": "t_uint256",
        "label": "mapping(uint256 => struct DataTypes.Hat)",
        "numberOfBytes": "32",
        "value": "t_struct(Hat)6570_storage"
      },
      "t_mapping(t_uint256,t_uint256)": {
        "encoding": "mapping",
        "key": "t_uint256",
        "label": "mapping(uint256 => uint256)",
        "numberOfBytes": "32",
        "value": "t_uint256"
      },
      "t_string_storage": {
        "encoding": "bytes",
        "label": "string",
        "numberOfBytes": "32"
      },
      "t_struct(Counter)1967_storage": {
        "encoding": "inplace",
        "label": "struct Counters.Counter",
        "members": [
          {
            "astId": 1966,
            "contract": "contracts/accessories/Hat.sol:Hat",
            "label": "_value",
            "offset": 0,
            "slot": "0",
            "type": "t_uint256"
          }
        ],
        "numberOfBytes": "32"
      },
      "t_struct(Hat)6570_storage": {
        "encoding": "inplace",
        "label": "struct DataTypes.Hat",
        "members": [
          {
            "astId": 6569,
            "contract": "contracts/accessories/Hat.sol:Hat",
            "label": "color",
            "offset": 0,
            "slot": "0",
            "type": "t_string_storage"
          }
        ],
        "numberOfBytes": "32"
      },
      "t_uint256": {
        "encoding": "inplace",
        "label": "uint256",
        "numberOfBytes": "32"
      }
    }
  }
}