{
  "address": "0x2279B7A0a67DB372996a5FaB50D91eAA73d2eBe6",
  "abi": [
    {
      "inputs": [
        {
          "internalType": "address",
          "name": "feeCollector",
          "type": "address"
        }
      ],
      "stateMutability": "nonpayable",
      "type": "constructor"
    },
    {
      "inputs": [
        {
          "internalType": "uint256",
          "name": "min",
          "type": "uint256"
        },
        {
          "internalType": "uint256",
          "name": "max",
          "type": "uint256"
        }
      ],
      "name": "PRNG__InvalidRange",
      "type": "error"
    },
    {
      "inputs": [],
      "name": "Scarf__InvalidFeeCollector",
      "type": "error"
    },
    {
      "inputs": [],
      "name": "Scarf__InvalidMintFee",
      "type": "error"
    },
    {
      "inputs": [],
      "name": "Scarf__NotMinted",
      "type": "error"
    },
    {
      "inputs": [],
      "name": "Scarf__TransferFailed",
      "type": "error"
    },
    {
      "inputs": [],
      "name": "Scarf__ZeroAddress",
      "type": "error"
    },
    {
      "anonymous": false,
      "inputs": [
        {
          "indexed": true,
          "internalType": "address",
          "name": "owner",
          "type": "address"
        },
        {
          "indexed": true,
          "internalType": "address",
          "name": "approved",
          "type": "address"
        },
        {
          "indexed": true,
          "internalType": "uint256",
          "name": "tokenId",
          "type": "uint256"
        }
      ],
      "name": "Approval",
      "type": "event"
    },
    {
      "anonymous": false,
      "inputs": [
        {
          "indexed": true,
          "internalType": "address",
          "name": "owner",
          "type": "address"
        },
        {
          "indexed": true,
          "internalType": "address",
          "name": "operator",
          "type": "address"
        },
        {
          "indexed": false,
          "internalType": "bool",
          "name": "approved",
          "type": "bool"
        }
      ],
      "name": "ApprovalForAll",
      "type": "event"
    },
    {
      "anonymous": false,
      "inputs": [
        {
          "indexed": false,
          "internalType": "address",
          "name": "oldFeeCollector",
          "type": "address"
        },
        {
          "indexed": false,
          "internalType": "address",
          "name": "newFeeCollector",
          "type": "address"
        }
      ],
      "name": "FeeCollectorChanged",
      "type": "event"
    },
    {
      "anonymous": false,
      "inputs": [
        {
          "indexed": true,
          "internalType": "address",
          "name": "previousOwner",
          "type": "address"
        },
        {
          "indexed": true,
          "internalType": "address",
          "name": "newOwner",
          "type": "address"
        }
      ],
      "name": "OwnershipTransferred",
      "type": "event"
    },
    {
      "anonymous": false,
      "inputs": [
        {
          "indexed": true,
          "internalType": "address",
          "name": "from",
          "type": "address"
        },
        {
          "indexed": true,
          "internalType": "address",
          "name": "to",
          "type": "address"
        },
        {
          "indexed": true,
          "internalType": "uint256",
          "name": "tokenId",
          "type": "uint256"
        }
      ],
      "name": "Transfer",
      "type": "event"
    },
    {
      "inputs": [
        {
          "internalType": "address",
          "name": "to",
          "type": "address"
        },
        {
          "internalType": "uint256",
          "name": "tokenId",
          "type": "uint256"
        }
      ],
      "name": "approve",
      "outputs": [],
      "stateMutability": "nonpayable",
      "type": "function"
    },
    {
      "inputs": [
        {
          "internalType": "address",
          "name": "owner",
          "type": "address"
        }
      ],
      "name": "balanceOf",
      "outputs": [
        {
          "internalType": "uint256",
          "name": "",
          "type": "uint256"
        }
      ],
      "stateMutability": "view",
      "type": "function"
    },
    {
      "inputs": [
        {
          "internalType": "uint256",
          "name": "tokenId",
          "type": "uint256"
        }
      ],
      "name": "getApproved",
      "outputs": [
        {
          "internalType": "address",
          "name": "",
          "type": "address"
        }
      ],
      "stateMutability": "view",
      "type": "function"
    },
    {
      "inputs": [
        {
          "internalType": "uint256",
          "name": "tokenId",
          "type": "uint256"
        }
      ],
      "name": "getAttributes",
      "outputs": [
        {
          "components": [
            {
              "internalType": "string",
              "name": "color",
              "type": "string"
            }
          ],
          "internalType": "struct DataTypes.Scarf",
          "name": "",
          "type": "tuple"
        }
      ],
      "stateMutability": "view",
      "type": "function"
    },
    {
      "inputs": [],
      "name": "getFeeCollector",
      "outputs": [
        {
          "internalType": "address",
          "name": "",
          "type": "address"
        }
      ],
      "stateMutability": "view",
      "type": "function"
    },
    {
      "inputs": [
        {
          "internalType": "address",
          "name": "owner",
          "type": "address"
        },
        {
          "internalType": "address",
          "name": "operator",
          "type": "address"
        }
      ],
      "name": "isApprovedForAll",
      "outputs": [
        {
          "internalType": "bool",
          "name": "",
          "type": "bool"
        }
      ],
      "stateMutability": "view",
      "type": "function"
    },
    {
      "inputs": [],
      "name": "mint",
      "outputs": [
        {
          "internalType": "uint256",
          "name": "",
          "type": "uint256"
        }
      ],
      "stateMutability": "payable",
      "type": "function"
    },
    {
      "inputs": [],
      "name": "name",
      "outputs": [
        {
          "internalType": "string",
          "name": "",
          "type": "string"
        }
      ],
      "stateMutability": "view",
      "type": "function"
    },
    {
      "inputs": [],
      "name": "owner",
      "outputs": [
        {
          "internalType": "address",
          "name": "",
          "type": "address"
        }
      ],
      "stateMutability": "view",
      "type": "function"
    },
    {
      "inputs": [
        {
          "internalType": "uint256",
          "name": "tokenId",
          "type": "uint256"
        }
      ],
      "name": "ownerOf",
      "outputs": [
        {
          "internalType": "address",
          "name": "",
          "type": "address"
        }
      ],
      "stateMutability": "view",
      "type": "function"
    },
    {
      "inputs": [
        {
          "internalType": "uint256",
          "name": "tokenId",
          "type": "uint256"
        }
      ],
      "name": "renderTokenById",
      "outputs": [
        {
          "internalType": "string",
          "name": "",
          "type": "string"
        }
      ],
      "stateMutability": "view",
      "type": "function"
    },
    {
      "inputs": [],
      "name": "renounceOwnership",
      "outputs": [],
      "stateMutability": "nonpayable",
      "type": "function"
    },
    {
      "inputs": [
        {
          "internalType": "address",
          "name": "from",
          "type": "address"
        },
        {
          "internalType": "address",
          "name": "to",
          "type": "address"
        },
        {
          "internalType": "uint256",
          "name": "tokenId",
          "type": "uint256"
        }
      ],
      "name": "safeTransferFrom",
      "outputs": [],
      "stateMutability": "nonpayable",
      "type": "function"
    },
    {
      "inputs": [
        {
          "internalType": "address",
          "name": "from",
          "type": "address"
        },
        {
          "internalType": "address",
          "name": "to",
          "type": "address"
        },
        {
          "internalType": "uint256",
          "name": "tokenId",
          "type": "uint256"
        },
        {
          "internalType": "bytes",
          "name": "data",
          "type": "bytes"
        }
      ],
      "name": "safeTransferFrom",
      "outputs": [],
      "stateMutability": "nonpayable",
      "type": "function"
    },
    {
      "inputs": [
        {
          "internalType": "address",
          "name": "operator",
          "type": "address"
        },
        {
          "internalType": "bool",
          "name": "approved",
          "type": "bool"
        }
      ],
      "name": "setApprovalForAll",
      "outputs": [],
      "stateMutability": "nonpayable",
      "type": "function"
    },
    {
      "inputs": [
        {
          "internalType": "address",
          "name": "newFeeCollector",
          "type": "address"
        }
      ],
      "name": "setFeeCollector",
      "outputs": [],
      "stateMutability": "nonpayable",
      "type": "function"
    },
    {
      "inputs": [
        {
          "internalType": "bytes4",
          "name": "interfaceId",
          "type": "bytes4"
        }
      ],
      "name": "supportsInterface",
      "outputs": [
        {
          "internalType": "bool",
          "name": "",
          "type": "bool"
        }
      ],
      "stateMutability": "view",
      "type": "function"
    },
    {
      "inputs": [],
      "name": "symbol",
      "outputs": [
        {
          "internalType": "string",
          "name": "",
          "type": "string"
        }
      ],
      "stateMutability": "view",
      "type": "function"
    },
    {
      "inputs": [
        {
          "internalType": "uint256",
          "name": "index",
          "type": "uint256"
        }
      ],
      "name": "tokenByIndex",
      "outputs": [
        {
          "internalType": "uint256",
          "name": "",
          "type": "uint256"
        }
      ],
      "stateMutability": "view",
      "type": "function"
    },
    {
      "inputs": [
        {
          "internalType": "address",
          "name": "owner",
          "type": "address"
        },
        {
          "internalType": "uint256",
          "name": "index",
          "type": "uint256"
        }
      ],
      "name": "tokenOfOwnerByIndex",
      "outputs": [
        {
          "internalType": "uint256",
          "name": "",
          "type": "uint256"
        }
      ],
      "stateMutability": "view",
      "type": "function"
    },
    {
      "inputs": [
        {
          "internalType": "uint256",
          "name": "tokenId",
          "type": "uint256"
        }
      ],
      "name": "tokenURI",
      "outputs": [
        {
          "internalType": "string",
          "name": "",
          "type": "string"
        }
      ],
      "stateMutability": "view",
      "type": "function"
    },
    {
      "inputs": [],
      "name": "totalSupply",
      "outputs": [
        {
          "internalType": "uint256",
          "name": "",
          "type": "uint256"
        }
      ],
      "stateMutability": "view",
      "type": "function"
    },
    {
      "inputs": [
        {
          "internalType": "address",
          "name": "from",
          "type": "address"
        },
        {
          "internalType": "address",
          "name": "to",
          "type": "address"
        },
        {
          "internalType": "uint256",
          "name": "tokenId",
          "type": "uint256"
        }
      ],
      "name": "transferFrom",
      "outputs": [],
      "stateMutability": "nonpayable",
      "type": "function"
    },
    {
      "inputs": [
        {
          "internalType": "address",
          "name": "newOwner",
          "type": "address"
        }
      ],
      "name": "transferOwnership",
      "outputs": [],
      "stateMutability": "nonpayable",
      "type": "function"
    }
  ],
  "transactionHash": "0xcf602b06aff35409ebadff2dede045dc9c140a7f438855bbf5b812e4d0541801",
  "args": [
    "0xf39Fd6e51aad88F6F4ce6aB8827279cffFb92266"
  ],
  "numDeployments": 1,
  "solcInputHash": "f7c322bb55226d6d888297f97025c99b",
  "bytecode": "0x60806040523461038557604051601f61204838819003918201601f19168301916001600160401b038311848410176102905780849260209460405283398101031261038557516001600160a01b038116908190036103855761005f61038a565b9061006861038a565b82519091906001600160401b03811161029057600054600181811c9116801561037b575b602082101461027057601f8111610317575b506020601f82116001146102b157819293946000926102a6575b50508160011b916000199060031b1c1916176000555b81516001600160401b03811161029057600154600181811c91168015610286575b602082101461027057601f811161020b575b50602092601f82116001146101a6579281929360009261019b575b50508160011b916000199060031b1c1916176001555b600a8054336001600160a01b0319821681179092556040519291906001600160a01b03167f8be0079c531659141344cd1fd0a4f28419497f9722a3daafe3b4186f6b6457e0600080a3600b80546001600160a01b031916919091179055611c8c90816103bc8239f35b01519050388061011c565b601f198216936001600052806000209160005b8681106101f357508360019596106101da575b505050811b01600155610132565b015160001960f88460031b161c191690553880806101cc565b919260206001819286850151815501940192016101b9565b60016000527fb10e2d527612073b26eecdfd717e6a320cf44b4afac2b0732d9fcbe2b7fa0cf6601f830160051c81019160208410610266575b601f0160051c01905b81811061025a5750610101565b6000815560010161024d565b9091508190610244565b634e487b7160e01b600052602260045260246000fd5b90607f16906100ef565b634e487b7160e01b600052604160045260246000fd5b0151905038806100b8565b601f1982169060008052806000209160005b8181106102ff575095836001959697106102e6575b505050811b016000556100ce565b015160001960f88460031b161c191690553880806102d8565b9192602060018192868b0151815501940192016102c3565b600080527f290decd9548b62a8d60345a988386fc84ba6bc95484008f6362f93160ef3e563601f830160051c81019160208410610371575b601f0160051c01905b818110610365575061009e565b60008155600101610358565b909150819061034f565b90607f169061008c565b600080fd5b60408051919082016001600160401b0381118382101761029057604052600582526429b1b0b93360d91b602083015256fe608080604052600436101561001357600080fd5b600090813560e01c90816301ffc9a71461108d5750806306fdde0314611005578063081812fc14610fe6578063095ea7b314610e625780631249c58b14610a0657806312fde4b7146109dd57806318160ddd146109bf57806323b872dd146109955780632f745c59146108e857806342842e0e146108be5780634378a6e3146108605780634f6ccce7146107cd5780636352211e1461079c57806370a0823114610770578063715018a6146107135780638da5cb5b146106ea57806395d89b4114610607578063a22cb46514610531578063a2d6c6da14610491578063a42dce80146103ef578063b88d4fde1461035a578063c87b56dd1461024e578063e985e9c5146101f45763f2fde38b1461012957600080fd5b346101f15760203660031901126101f15761014261115c565b61014a61191f565b6001600160a01b0316801561019d57600a80546001600160a01b0319811683179091556001600160a01b03167f8be0079c531659141344cd1fd0a4f28419497f9722a3daafe3b4186f6b6457e08380a380f35b60405162461bcd60e51b815260206004820152602660248201527f4f776e61626c653a206e6577206f776e657220697320746865207a65726f206160448201526564647265737360d01b6064820152608490fd5b80fd5b50346101f15760403660031901126101f157604061021061115c565b91610219611177565b9260018060a01b031681526005602052209060018060a01b0316600052602052602060ff604060002054166040519015158152f35b50346101f15760203660031901126101f1576004356000818152600260205260409020546001600160a01b03161561034b57808252600d602052816102d2604082206102a5604051916102a0836111c7565b611271565b815260405193849283926326877f8b60e21b84526040600485015251602060448501526064840190611137565b9060248301520381739fE46736679d2D9a65F0992F2272dE9f3c7fa6e05af49081156103405782610319939261031d575b5050604051918291602083526020830190611137565b0390f35b61033992503d8091833e61033181836111f9565b8101906114ff565b3880610303565b6040513d84823e3d90fd5b633a5c641160e21b8252600482fd5b50346101f15760803660031901126101f15761037461115c565b61037c611177565b906064359067ffffffffffffffff82116103eb57366023830112156103eb57816004013592846103ab8561121b565b936103b960405195866111f9565b85855236602487830101116103e757856103e49660246020930183880137850101526044359161155e565b80f35b5080fd5b8380fd5b50346101f15760203660031901126101f15761040961115c565b61041161191f565b600b546001600160a01b03808216921690811561048257828214610473576001600160a01b0319168117600b556040805192835260208301919091527f649c5e3d0ed183894196148e193af316452b0037e77d2ff0fef23b7dc722bed091a180f35b631cbbc77f60e11b8452600484fd5b635c05802160e01b8452600484fd5b50346101f15760203660031901126101f1576004358152600d6020526104f181604081206104c5604051916102a0836111c7565b815260405180938192630cb27b3b60e11b83526020600484015251602060248401526044830190611137565b0381739fE46736679d2D9a65F0992F2272dE9f3c7fa6e05af49081156103405782610319939261031d575050604051918291602083526020830190611137565b50346101f15760403660031901126101f15761054b61115c565b60243590811515809203610603576001600160a01b0316903382146105be5733835260056020526040832082600052602052604060002060ff1981541660ff83161790556040519081527f17307eab39ab6107e8899845ad3d59bd9653f200f220920489ca2b5937696c3160203392a380f35b60405162461bcd60e51b815260206004820152601960248201527f4552433732313a20617070726f766520746f2063616c6c6572000000000000006044820152606490fd5b8280fd5b50346101f157806003193601126101f15760405190806001549061062a82611237565b80855291600181169081156106c35750600114610666575b61031984610652818603826111f9565b604051918291602083526020830190611137565b600181527fb10e2d527612073b26eecdfd717e6a320cf44b4afac2b0732d9fcbe2b7fa0cf6939250905b8082106106a95750909150810160200161065282610642565b919260018160209254838588010152019101909291610690565b60ff191660208087019190915292151560051b850190920192506106529150839050610642565b50346101f157806003193601126101f157600a546040516001600160a01b039091168152602090f35b50346101f157806003193601126101f15761072c61191f565b600a80546001600160a01b0319811690915581906001600160a01b03167f8be0079c531659141344cd1fd0a4f28419497f9722a3daafe3b4186f6b6457e08280a380f35b50346101f15760203660031901126101f157602061079461078f61115c565b611488565b604051908152f35b50346101f15760203660031901126101f15760206107bb600435611462565b6040516001600160a01b039091168152f35b50346101f15760203660031901126101f157600435600854811015610806576107f76020916113e5565b90549060031b1c604051908152f35b60405162461bcd60e51b815260206004820152602c60248201527f455243373231456e756d657261626c653a20676c6f62616c20696e646578206f60448201526b7574206f6620626f756e647360a01b6064820152608490fd5b50346101f15760203660031901126101f15760406103199160608251610885816111c7565b526004358152600d602052206108a1604051916102a0836111c7565b815260405191829160208352516020808401526040830190611137565b50346101f1576103e46108d03661118d565b90604051926108e06020856111f9565b85845261155e565b50346101f15760403660031901126101f15761090261115c565b6024359161090f82611488565b83101561093c5760209260409260018060a01b031682526006845282822090825283522054604051908152f35b60405162461bcd60e51b815260206004820152602b60248201527f455243373231456e756d657261626c653a206f776e657220696e646578206f7560448201526a74206f6620626f756e647360a81b6064820152608490fd5b50346101f1576103e46109a73661118d565b916109ba6109b584336115f2565b611383565b6116c5565b50346101f157806003193601126101f1576020600854604051908152f35b50346101f157806003193601126101f157600b546040516001600160a01b039091168152602090f35b50806003193601126101f157662386f26fc100003410610e53576001600c540180600c553315610e0f57600081815260026020526040902054610a55906001600160a01b031615155b156115a6565b6008548183526009602052806040842055600160401b811015610dfb5781610a86826001610a9f94016008556113e5565b90919082549060031b91821b91600019901b1916179055565b610aa833611488565b33835260066020526040832081845260205281604084205581835260076020526040832055610aef610a4f82600052600260205260018060a01b0360406000205416151590565b33808352600360209081526040808520805460010190558385526002909152832080546001600160a01b03191682179055819083600080516020611c378339815191528180a46040516060610b4481836111f9565b8036833783600019430143811133841b9630851b9240935b6003821015610be45780610bd0575081610bba576001604051602081019083825242604082015286888201528a608082015285609482015260888152610ba360a8826111f9565b51902060659006600583901b880152016000610b5c565b634e487b7160e01b600052601160045260246000fd5b634e487b7160e01b81526011600452602490fd5b878791610c9c6002600385519582610c17610c11610c0b604060208601519501519a611ac7565b93611ac7565b98611ac7565b6024604051998a94630d0e6d8560e31b6020870152610c3f815180926020868a019101611114565b850161016160f51b83820152610c5f825180936020602685019101611114565b01016201296160ed1b83820152610c80825180936020600585019101611114565b010161252960f01b838201520301601d198101865201846111f9565b60405192610ca9846111c7565b8352818152600d60205260408120925192835167ffffffffffffffff8111610dfb57610cd58254611237565b601f8111610db6575b50602094601f8211600114610d54579483949582939492610d49575b50508160011b916000199060031b1c19161790555b808080803460018060a01b03600a54165af1610d29611353565b5015610d3a57602082604051908152f35b632e61b12f60e21b8152600490fd5b015190508580610cfa565b601f1982169583855280852091855b888110610d9e57508360019596979810610d85575b505050811b019055610d0f565b015160001960f88460031b161c19169055858080610d78565b91926020600181928685015181550194019201610d63565b82845260208420601f830160051c81019160208410610df1575b601f0160051c01905b818110610de65750610cde565b848155600101610dd9565b9091508190610dd0565b634e487b7160e01b83526041600452602483fd5b606460405162461bcd60e51b815260206004820152602060248201527f4552433732313a206d696e7420746f20746865207a65726f20616464726573736044820152fd5b630ea220ab60e11b8152600490fd5b50346101f15760403660031901126101f157610e7c61115c565b602435906001600160a01b03610e9183611462565b6001600160a01b039092169116818114610f9757803314908115610f76575b5015610f0b5781835260046020526040832080546001600160a01b031916821790556001600160a01b03610ee383611462565b167f8c5be1e5ebec7d5bd14f71427d1e84f3dd0314c0f7b2291e5b200ac8c7c3b9258480a480f35b60405162461bcd60e51b815260206004820152603d60248201527f4552433732313a20617070726f76652063616c6c6572206973206e6f7420746f60448201527f6b656e206f776e6572206f7220617070726f76656420666f7220616c6c0000006064820152608490fd5b84525060056020908152604080852033865290915283205460ff1638610eb0565b60405162461bcd60e51b815260206004820152602160248201527f4552433732313a20617070726f76616c20746f2063757272656e74206f776e656044820152603960f91b6064820152608490fd5b50346101f15760203660031901126101f15760206107bb600435611315565b50346101f157806003193601126101f157604051908080549061102782611237565b80855291600181169081156106c3575060011461104e5761031984610652818603826111f9565b80805260208120939250905b8082106110735750909150810160200161065282610642565b91926001816020925483858801015201910190929161105a565b9050346103e75760203660031901126103e75760043563ffffffff60e01b8116809103610603576020925063780e9d6360e01b81149081156110d1575b5015158152f35b6380ac58cd60e01b811491508115611103575b81156110f2575b50386110ca565b6301ffc9a760e01b149050386110eb565b635b5e139f60e01b811491506110e4565b60005b8381106111275750506000910152565b8181015183820152602001611117565b9060209161115081518092818552858086019101611114565b601f01601f1916010190565b600435906001600160a01b038216820361117257565b600080fd5b602435906001600160a01b038216820361117257565b6060906003190112611172576004356001600160a01b038116810361117257906024356001600160a01b0381168103611172579060443590565b6020810190811067ffffffffffffffff8211176111e357604052565b634e487b7160e01b600052604160045260246000fd5b90601f8019910116810190811067ffffffffffffffff8211176111e357604052565b67ffffffffffffffff81116111e357601f01601f191660200190565b90600182811c92168015611267575b602083101461125157565b634e487b7160e01b600052602260045260246000fd5b91607f1691611246565b906040519182600082549261128584611237565b80845293600181169081156112f357506001146112ac575b506112aa925003836111f9565b565b90506000929192526020600020906000915b8183106112d75750509060206112aa928201013861129d565b60209193508060019154838589010152019101909184926112be565b9050602092506112aa94915060ff191682840152151560051b8201013861129d565b600081815260026020526040902054611338906001600160a01b03161515611416565b6000908152600460205260409020546001600160a01b031690565b3d1561137e573d906113648261121b565b9161137260405193846111f9565b82523d6000602084013e565b606090565b1561138a57565b60405162461bcd60e51b815260206004820152602d60248201527f4552433732313a2063616c6c6572206973206e6f7420746f6b656e206f776e6560448201526c1c881bdc88185c1c1c9bdd9959609a1b6064820152608490fd5b60085481101561140057600860005260206000200190600090565b634e487b7160e01b600052603260045260246000fd5b1561141d57565b60405162461bcd60e51b815260206004820152601860248201527f4552433732313a20696e76616c696420746f6b656e20494400000000000000006044820152606490fd5b6000908152600260205260409020546001600160a01b0316611485811515611416565b90565b6001600160a01b031680156114a857600052600360205260406000205490565b60405162461bcd60e51b815260206004820152602960248201527f4552433732313a2061646472657373207a65726f206973206e6f7420612076616044820152683634b21037bbb732b960b91b6064820152608490fd5b6020818303126111725780519067ffffffffffffffff8211611172570181601f820112156111725780516115328161121b565b9261154060405194856111f9565b81845260208284010111611172576114859160208085019101611114565b906115829392916115726109b584336115f2565b61157d8383836116c5565b6119ca565b1561158957565b60405162461bcd60e51b8152806115a260048201611977565b0390fd5b156115ad57565b60405162461bcd60e51b815260206004820152601c60248201527f4552433732313a20746f6b656e20616c7265616479206d696e746564000000006044820152606490fd5b906001600160a01b0361160482611462565b6001600160a01b0390931692168281149291908315611644575b50821561162a57505090565b9091506001600160a01b039061163f90611315565b161490565b909250600052600560205260406000208160005260205260ff60406000205416913861161e565b1561167257565b60405162461bcd60e51b815260206004820152602560248201527f4552433732313a207472616e736665722066726f6d20696e636f72726563742060448201526437bbb732b960d91b6064820152608490fd5b906116cf83611462565b6001600160a01b0383811692916116e89116831461166b565b6001600160a01b0381169283156118ce578261180d57506008549084600052600960205281604060002055600160401b8210156111e35761174285610a86846001600080516020611c3783398151915296016008556113e5565b6000908385036117d9575b5061176a836001600160a01b0361176388611462565b161461166b565b8481526004602052604081206bffffffffffffffffffffffff60a01b8154169055828152600360205260408120600019815401905583815260036020526040812060018154019055848152600260205260408120846bffffffffffffffffffffffff60a01b82541617905580a4565b6117e290611488565b848252600660205260408220818352602052856040832055858252600760205260408220553861174d565b83830361182b575b50600080516020611c3783398151915290611742565b61183490611488565b600019810191908211610bba57600080516020611c378339815191529185600052600760205260406000205481810361189b575b50856000526007602052600060408120558360005260066020526040600020906000526020526000604081205590611815565b60008581526006602090815260408083208584528252808320548484528184208190558352600790915290205538611868565b60405162461bcd60e51b8152602060048201526024808201527f4552433732313a207472616e7366657220746f20746865207a65726f206164646044820152637265737360e01b6064820152608490fd5b600a546001600160a01b0316330361193357565b606460405162461bcd60e51b815260206004820152602060248201527f4f776e61626c653a2063616c6c6572206973206e6f7420746865206f776e65726044820152fd5b60809060208152603260208201527f4552433732313a207472616e7366657220746f206e6f6e20455243373231526560408201527131b2b4bb32b91034b6b83632b6b2b73a32b960711b60608201520190565b919290803b15611abe57611a1a93600060209460405196879586948593630a85bd0160e11b855233600486015260018060a01b031660248501526044840152608060648401526084830190611137565b03926001600160a01b03165af18091600091611a7b575b5090611a6557611a3f611353565b80519081611a605760405162461bcd60e51b8152806115a260048201611977565b602001fd5b6001600160e01b031916630a85bd0160e11b1490565b6020813d602011611ab6575b81611a94602093836111f9565b810103126103e75751906001600160e01b0319821682036101f1575038611a31565b3d9150611a87565b50505050600190565b8060009172184f03e93ff9f4daa797ed6e38ed64bf6a1f0160401b821015611c13575b806d04ee2d6d415b85acef8100000000600a921015611bf8575b662386f26fc10000811015611be4575b6305f5e100811015611bd3575b612710811015611bc4575b6064811015611bb6575b1015611bab575b600a60216001840193611b4f8561121b565b94611b5d60405196876111f9565b808652611b6c601f199161121b565b013660208701378401015b60001901916f181899199a1a9b1b9c1cb0b131b232b360811b8282061a8353048015611ba657600a9091611b77565b505090565b600190910190611b3d565b606460029104930192611b36565b61271060049104930192611b2c565b6305f5e10060089104930192611b21565b662386f26fc1000060109104930192611b14565b6d04ee2d6d415b85acef810000000060209104930192611b04565b506040915072184f03e93ff9f4daa797ed6e38ed64bf6a1f0160401b8104611aea56feddf252ad1be2c89b69c2b068fc378daa952ba7f163c4a11628f55a4df523b3efa2646970667358221220e463be82febe9bb13f9cf8923837368cb06447727bf7e7c8b584a86ecda0633764736f6c634300081c0033",
  "deployedBytecode": "0x608080604052600436101561001357600080fd5b600090813560e01c90816301ffc9a71461108d5750806306fdde0314611005578063081812fc14610fe6578063095ea7b314610e625780631249c58b14610a0657806312fde4b7146109dd57806318160ddd146109bf57806323b872dd146109955780632f745c59146108e857806342842e0e146108be5780634378a6e3146108605780634f6ccce7146107cd5780636352211e1461079c57806370a0823114610770578063715018a6146107135780638da5cb5b146106ea57806395d89b4114610607578063a22cb46514610531578063a2d6c6da14610491578063a42dce80146103ef578063b88d4fde1461035a578063c87b56dd1461024e578063e985e9c5146101f45763f2fde38b1461012957600080fd5b346101f15760203660031901126101f15761014261115c565b61014a61191f565b6001600160a01b0316801561019d57600a80546001600160a01b0319811683179091556001600160a01b03167f8be0079c531659141344cd1fd0a4f28419497f9722a3daafe3b4186f6b6457e08380a380f35b60405162461bcd60e51b815260206004820152602660248201527f4f776e61626c653a206e6577206f776e657220697320746865207a65726f206160448201526564647265737360d01b6064820152608490fd5b80fd5b50346101f15760403660031901126101f157604061021061115c565b91610219611177565b9260018060a01b031681526005602052209060018060a01b0316600052602052602060ff604060002054166040519015158152f35b50346101f15760203660031901126101f1576004356000818152600260205260409020546001600160a01b03161561034b57808252600d602052816102d2604082206102a5604051916102a0836111c7565b611271565b815260405193849283926326877f8b60e21b84526040600485015251602060448501526064840190611137565b906024830152038173__$f0abc41383f9653515648810671b79cf5b$__5af49081156103405782610319939261031d575b5050604051918291602083526020830190611137565b0390f35b61033992503d8091833e61033181836111f9565b8101906114ff565b3880610303565b6040513d84823e3d90fd5b633a5c641160e21b8252600482fd5b50346101f15760803660031901126101f15761037461115c565b61037c611177565b906064359067ffffffffffffffff82116103eb57366023830112156103eb57816004013592846103ab8561121b565b936103b960405195866111f9565b85855236602487830101116103e757856103e49660246020930183880137850101526044359161155e565b80f35b5080fd5b8380fd5b50346101f15760203660031901126101f15761040961115c565b61041161191f565b600b546001600160a01b03808216921690811561048257828214610473576001600160a01b0319168117600b556040805192835260208301919091527f649c5e3d0ed183894196148e193af316452b0037e77d2ff0fef23b7dc722bed091a180f35b631cbbc77f60e11b8452600484fd5b635c05802160e01b8452600484fd5b50346101f15760203660031901126101f1576004358152600d6020526104f181604081206104c5604051916102a0836111c7565b815260405180938192630cb27b3b60e11b83526020600484015251602060248401526044830190611137565b038173__$f0abc41383f9653515648810671b79cf5b$__5af49081156103405782610319939261031d575050604051918291602083526020830190611137565b50346101f15760403660031901126101f15761054b61115c565b60243590811515809203610603576001600160a01b0316903382146105be5733835260056020526040832082600052602052604060002060ff1981541660ff83161790556040519081527f17307eab39ab6107e8899845ad3d59bd9653f200f220920489ca2b5937696c3160203392a380f35b60405162461bcd60e51b815260206004820152601960248201527f4552433732313a20617070726f766520746f2063616c6c6572000000000000006044820152606490fd5b8280fd5b50346101f157806003193601126101f15760405190806001549061062a82611237565b80855291600181169081156106c35750600114610666575b61031984610652818603826111f9565b604051918291602083526020830190611137565b600181527fb10e2d527612073b26eecdfd717e6a320cf44b4afac2b0732d9fcbe2b7fa0cf6939250905b8082106106a95750909150810160200161065282610642565b919260018160209254838588010152019101909291610690565b60ff191660208087019190915292151560051b850190920192506106529150839050610642565b50346101f157806003193601126101f157600a546040516001600160a01b039091168152602090f35b50346101f157806003193601126101f15761072c61191f565b600a80546001600160a01b0319811690915581906001600160a01b03167f8be0079c531659141344cd1fd0a4f28419497f9722a3daafe3b4186f6b6457e08280a380f35b50346101f15760203660031901126101f157602061079461078f61115c565b611488565b604051908152f35b50346101f15760203660031901126101f15760206107bb600435611462565b6040516001600160a01b039091168152f35b50346101f15760203660031901126101f157600435600854811015610806576107f76020916113e5565b90549060031b1c604051908152f35b60405162461bcd60e51b815260206004820152602c60248201527f455243373231456e756d657261626c653a20676c6f62616c20696e646578206f60448201526b7574206f6620626f756e647360a01b6064820152608490fd5b50346101f15760203660031901126101f15760406103199160608251610885816111c7565b526004358152600d602052206108a1604051916102a0836111c7565b815260405191829160208352516020808401526040830190611137565b50346101f1576103e46108d03661118d565b90604051926108e06020856111f9565b85845261155e565b50346101f15760403660031901126101f15761090261115c565b6024359161090f82611488565b83101561093c5760209260409260018060a01b031682526006845282822090825283522054604051908152f35b60405162461bcd60e51b815260206004820152602b60248201527f455243373231456e756d657261626c653a206f776e657220696e646578206f7560448201526a74206f6620626f756e647360a81b6064820152608490fd5b50346101f1576103e46109a73661118d565b916109ba6109b584336115f2565b611383565b6116c5565b50346101f157806003193601126101f1576020600854604051908152f35b50346101f157806003193601126101f157600b546040516001600160a01b039091168152602090f35b50806003193601126101f157662386f26fc100003410610e53576001600c540180600c553315610e0f57600081815260026020526040902054610a55906001600160a01b031615155b156115a6565b6008548183526009602052806040842055600160401b811015610dfb5781610a86826001610a9f94016008556113e5565b90919082549060031b91821b91600019901b1916179055565b610aa833611488565b33835260066020526040832081845260205281604084205581835260076020526040832055610aef610a4f82600052600260205260018060a01b0360406000205416151590565b33808352600360209081526040808520805460010190558385526002909152832080546001600160a01b03191682179055819083600080516020611c378339815191528180a46040516060610b4481836111f9565b8036833783600019430143811133841b9630851b9240935b6003821015610be45780610bd0575081610bba576001604051602081019083825242604082015286888201528a608082015285609482015260888152610ba360a8826111f9565b51902060659006600583901b880152016000610b5c565b634e487b7160e01b600052601160045260246000fd5b634e487b7160e01b81526011600452602490fd5b878791610c9c6002600385519582610c17610c11610c0b604060208601519501519a611ac7565b93611ac7565b98611ac7565b6024604051998a94630d0e6d8560e31b6020870152610c3f815180926020868a019101611114565b850161016160f51b83820152610c5f825180936020602685019101611114565b01016201296160ed1b83820152610c80825180936020600585019101611114565b010161252960f01b838201520301601d198101865201846111f9565b60405192610ca9846111c7565b8352818152600d60205260408120925192835167ffffffffffffffff8111610dfb57610cd58254611237565b601f8111610db6575b50602094601f8211600114610d54579483949582939492610d49575b50508160011b916000199060031b1c19161790555b808080803460018060a01b03600a54165af1610d29611353565b5015610d3a57602082604051908152f35b632e61b12f60e21b8152600490fd5b015190508580610cfa565b601f1982169583855280852091855b888110610d9e57508360019596979810610d85575b505050811b019055610d0f565b015160001960f88460031b161c19169055858080610d78565b91926020600181928685015181550194019201610d63565b82845260208420601f830160051c81019160208410610df1575b601f0160051c01905b818110610de65750610cde565b848155600101610dd9565b9091508190610dd0565b634e487b7160e01b83526041600452602483fd5b606460405162461bcd60e51b815260206004820152602060248201527f4552433732313a206d696e7420746f20746865207a65726f20616464726573736044820152fd5b630ea220ab60e11b8152600490fd5b50346101f15760403660031901126101f157610e7c61115c565b602435906001600160a01b03610e9183611462565b6001600160a01b039092169116818114610f9757803314908115610f76575b5015610f0b5781835260046020526040832080546001600160a01b031916821790556001600160a01b03610ee383611462565b167f8c5be1e5ebec7d5bd14f71427d1e84f3dd0314c0f7b2291e5b200ac8c7c3b9258480a480f35b60405162461bcd60e51b815260206004820152603d60248201527f4552433732313a20617070726f76652063616c6c6572206973206e6f7420746f60448201527f6b656e206f776e6572206f7220617070726f76656420666f7220616c6c0000006064820152608490fd5b84525060056020908152604080852033865290915283205460ff1638610eb0565b60405162461bcd60e51b815260206004820152602160248201527f4552433732313a20617070726f76616c20746f2063757272656e74206f776e656044820152603960f91b6064820152608490fd5b50346101f15760203660031901126101f15760206107bb600435611315565b50346101f157806003193601126101f157604051908080549061102782611237565b80855291600181169081156106c3575060011461104e5761031984610652818603826111f9565b80805260208120939250905b8082106110735750909150810160200161065282610642565b91926001816020925483858801015201910190929161105a565b9050346103e75760203660031901126103e75760043563ffffffff60e01b8116809103610603576020925063780e9d6360e01b81149081156110d1575b5015158152f35b6380ac58cd60e01b811491508115611103575b81156110f2575b50386110ca565b6301ffc9a760e01b149050386110eb565b635b5e139f60e01b811491506110e4565b60005b8381106111275750506000910152565b8181015183820152602001611117565b9060209161115081518092818552858086019101611114565b601f01601f1916010190565b600435906001600160a01b038216820361117257565b600080fd5b602435906001600160a01b038216820361117257565b6060906003190112611172576004356001600160a01b038116810361117257906024356001600160a01b0381168103611172579060443590565b6020810190811067ffffffffffffffff8211176111e357604052565b634e487b7160e01b600052604160045260246000fd5b90601f8019910116810190811067ffffffffffffffff8211176111e357604052565b67ffffffffffffffff81116111e357601f01601f191660200190565b90600182811c92168015611267575b602083101461125157565b634e487b7160e01b600052602260045260246000fd5b91607f1691611246565b906040519182600082549261128584611237565b80845293600181169081156112f357506001146112ac575b506112aa925003836111f9565b565b90506000929192526020600020906000915b8183106112d75750509060206112aa928201013861129d565b60209193508060019154838589010152019101909184926112be565b9050602092506112aa94915060ff191682840152151560051b8201013861129d565b600081815260026020526040902054611338906001600160a01b03161515611416565b6000908152600460205260409020546001600160a01b031690565b3d1561137e573d906113648261121b565b9161137260405193846111f9565b82523d6000602084013e565b606090565b1561138a57565b60405162461bcd60e51b815260206004820152602d60248201527f4552433732313a2063616c6c6572206973206e6f7420746f6b656e206f776e6560448201526c1c881bdc88185c1c1c9bdd9959609a1b6064820152608490fd5b60085481101561140057600860005260206000200190600090565b634e487b7160e01b600052603260045260246000fd5b1561141d57565b60405162461bcd60e51b815260206004820152601860248201527f4552433732313a20696e76616c696420746f6b656e20494400000000000000006044820152606490fd5b6000908152600260205260409020546001600160a01b0316611485811515611416565b90565b6001600160a01b031680156114a857600052600360205260406000205490565b60405162461bcd60e51b815260206004820152602960248201527f4552433732313a2061646472657373207a65726f206973206e6f7420612076616044820152683634b21037bbb732b960b91b6064820152608490fd5b6020818303126111725780519067ffffffffffffffff8211611172570181601f820112156111725780516115328161121b565b9261154060405194856111f9565b81845260208284010111611172576114859160208085019101611114565b906115829392916115726109b584336115f2565b61157d8383836116c5565b6119ca565b1561158957565b60405162461bcd60e51b8152806115a260048201611977565b0390fd5b156115ad57565b60405162461bcd60e51b815260206004820152601c60248201527f4552433732313a20746f6b656e20616c7265616479206d696e746564000000006044820152606490fd5b906001600160a01b0361160482611462565b6001600160a01b0390931692168281149291908315611644575b50821561162a57505090565b9091506001600160a01b039061163f90611315565b161490565b909250600052600560205260406000208160005260205260ff60406000205416913861161e565b1561167257565b60405162461bcd60e51b815260206004820152602560248201527f4552433732313a207472616e736665722066726f6d20696e636f72726563742060448201526437bbb732b960d91b6064820152608490fd5b906116cf83611462565b6001600160a01b0383811692916116e89116831461166b565b6001600160a01b0381169283156118ce578261180d57506008549084600052600960205281604060002055600160401b8210156111e35761174285610a86846001600080516020611c3783398151915296016008556113e5565b6000908385036117d9575b5061176a836001600160a01b0361176388611462565b161461166b565b8481526004602052604081206bffffffffffffffffffffffff60a01b8154169055828152600360205260408120600019815401905583815260036020526040812060018154019055848152600260205260408120846bffffffffffffffffffffffff60a01b82541617905580a4565b6117e290611488565b848252600660205260408220818352602052856040832055858252600760205260408220553861174d565b83830361182b575b50600080516020611c3783398151915290611742565b61183490611488565b600019810191908211610bba57600080516020611c378339815191529185600052600760205260406000205481810361189b575b50856000526007602052600060408120558360005260066020526040600020906000526020526000604081205590611815565b60008581526006602090815260408083208584528252808320548484528184208190558352600790915290205538611868565b60405162461bcd60e51b8152602060048201526024808201527f4552433732313a207472616e7366657220746f20746865207a65726f206164646044820152637265737360e01b6064820152608490fd5b600a546001600160a01b0316330361193357565b606460405162461bcd60e51b815260206004820152602060248201527f4f776e61626c653a2063616c6c6572206973206e6f7420746865206f776e65726044820152fd5b60809060208152603260208201527f4552433732313a207472616e7366657220746f206e6f6e20455243373231526560408201527131b2b4bb32b91034b6b83632b6b2b73a32b960711b60608201520190565b919290803b15611abe57611a1a93600060209460405196879586948593630a85bd0160e11b855233600486015260018060a01b031660248501526044840152608060648401526084830190611137565b03926001600160a01b03165af18091600091611a7b575b5090611a6557611a3f611353565b80519081611a605760405162461bcd60e51b8152806115a260048201611977565b602001fd5b6001600160e01b031916630a85bd0160e11b1490565b6020813d602011611ab6575b81611a94602093836111f9565b810103126103e75751906001600160e01b0319821682036101f1575038611a31565b3d9150611a87565b50505050600190565b8060009172184f03e93ff9f4daa797ed6e38ed64bf6a1f0160401b821015611c13575b806d04ee2d6d415b85acef8100000000600a921015611bf8575b662386f26fc10000811015611be4575b6305f5e100811015611bd3575b612710811015611bc4575b6064811015611bb6575b1015611bab575b600a60216001840193611b4f8561121b565b94611b5d60405196876111f9565b808652611b6c601f199161121b565b013660208701378401015b60001901916f181899199a1a9b1b9c1cb0b131b232b360811b8282061a8353048015611ba657600a9091611b77565b505090565b600190910190611b3d565b606460029104930192611b36565b61271060049104930192611b2c565b6305f5e10060089104930192611b21565b662386f26fc1000060109104930192611b14565b6d04ee2d6d415b85acef810000000060209104930192611b04565b506040915072184f03e93ff9f4daa797ed6e38ed64bf6a1f0160401b8104611aea56feddf252ad1be2c89b69c2b068fc378daa952ba7f163c4a11628f55a4df523b3efa2646970667358221220e463be82febe9bb13f9cf8923837368cb06447727bf7e7c8b584a86ecda0633764736f6c634300081c0033",
  "libraries": {
    "ScarfMetadata": "0x9fE46736679d2D9a65F0992F2272dE9f3c7fa6e0"
  },
  "devdoc": {
    "events": {
      "Approval(address,address,uint256)": {
        "details": "Emitted when `owner` enables `approved` to manage the `tokenId` token."
      },
      "ApprovalForAll(address,address,bool)": {
        "details": "Emitted when `owner` enables or disables (`approved`) `operator` to manage all of its assets."
      },
      "Transfer(address,address,uint256)": {
        "details": "Emitted when `tokenId` token is transferred from `from` to `to`."
      }
    },
    "kind": "dev",
    "methods": {
      "approve(address,uint256)": {
        "details": "See {IERC721-approve}."
      },
      "balanceOf(address)": {
        "details": "See {IERC721-balanceOf}."
      },
      "getApproved(uint256)": {
        "details": "See {IERC721-getApproved}."
      },
      "isApprovedForAll(address,address)": {
        "details": "See {IERC721-isApprovedForAll}."
      },
      "name()": {
        "details": "See {IERC721Metadata-name}."
      },
      "owner()": {
        "details": "Returns the address of the current owner."
      },
      "ownerOf(uint256)": {
        "details": "See {IERC721-ownerOf}."
      },
      "renounceOwnership()": {
        "details": "Leaves the contract without owner. It will not be possible to call `onlyOwner` functions anymore. Can only be called by the current owner. NOTE: Renouncing ownership will leave the contract without an owner, thereby removing any functionality that is only available to the owner."
      },
      "safeTransferFrom(address,address,uint256)": {
        "details": "See {IERC721-safeTransferFrom}."
      },
      "safeTransferFrom(address,address,uint256,bytes)": {
        "details": "See {IERC721-safeTransferFrom}."
      },
      "setApprovalForAll(address,bool)": {
        "details": "See {IERC721-setApprovalForAll}."
      },
      "supportsInterface(bytes4)": {
        "details": "See {IERC165-supportsInterface}."
      },
      "symbol()": {
        "details": "See {IERC721Metadata-symbol}."
      },
      "tokenByIndex(uint256)": {
        "details": "See {IERC721Enumerable-tokenByIndex}."
      },
      "tokenOfOwnerByIndex(address,uint256)": {
        "details": "See {IERC721Enumerable-tokenOfOwnerByIndex}."
      },
      "tokenURI(uint256)": {
        "details": "See {IERC721Metadata-tokenURI}."
      },
      "totalSupply()": {
        "details": "See {IERC721Enumerable-totalSupply}."
      },
      "transferFrom(address,address,uint256)": {
        "details": "See {IERC721-transferFrom}."
      },
      "transferOwnership(address)": {
        "details": "Transfers ownership of the contract to a new account (`newOwner`). Can only be called by the current owner."
      }
    },
    "version": 1
  },
  "userdoc": {
    "kind": "user",
    "methods": {},
    "version": 1
  },
  "storageLayout": {
    "storage": [
      {
        "astId": 144,
        "contract": "contracts/accessories/Scarf.sol:Scarf",
        "label": "_name",
        "offset": 0,
        "slot": "0",
        "type": "t_string_storage"
      },
      {
        "astId": 146,
        "contract": "contracts/accessories/Scarf.sol:Scarf",
        "label": "_symbol",
        "offset": 0,
        "slot": "1",
        "type": "t_string_storage"
      },
      {
        "astId": 150,
        "contract": "contracts/accessories/Scarf.sol:Scarf",
        "label": "_owners",
        "offset": 0,
        "slot": "2",
        "type": "t_mapping(t_uint256,t_address)"
      },
      {
        "astId": 154,
        "contract": "contracts/accessories/Scarf.sol:Scarf",
        "label": "_balances",
        "offset": 0,
        "slot": "3",
        "type": "t_mapping(t_address,t_uint256)"
      },
      {
        "astId": 158,
        "contract": "contracts/accessories/Scarf.sol:Scarf",
        "label": "_tokenApprovals",
        "offset": 0,
        "slot": "4",
        "type": "t_mapping(t_uint256,t_address)"
      },
      {
        "astId": 164,
        "contract": "contracts/accessories/Scarf.sol:Scarf",
        "label": "_operatorApprovals",
        "offset": 0,
        "slot": "5",
        "type": "t_mapping(t_address,t_mapping(t_address,t_bool))"
      },
      {
        "astId": 1212,
        "contract": "contracts/accessories/Scarf.sol:Scarf",
        "label": "_ownedTokens",
        "offset": 0,
        "slot": "6",
        "type": "t_mapping(t_address,t_mapping(t_uint256,t_uint256))"
      },
      {
        "astId": 1216,
        "contract": "contracts/accessories/Scarf.sol:Scarf",
        "label": "_ownedTokensIndex",
        "offset": 0,
        "slot": "7",
        "type": "t_mapping(t_uint256,t_uint256)"
      },
      {
        "astId": 1219,
        "contract": "contracts/accessories/Scarf.sol:Scarf",
        "label": "_allTokens",
        "offset": 0,
        "slot": "8",
        "type": "t_array(t_uint256)dyn_storage"
      },
      {
        "astId": 1223,
        "contract": "contracts/accessories/Scarf.sol:Scarf",
        "label": "_allTokensIndex",
        "offset": 0,
        "slot": "9",
        "type": "t_mapping(t_uint256,t_uint256)"
      },
      {
        "astId": 7,
        "contract": "contracts/accessories/Scarf.sol:Scarf",
        "label": "_owner",
        "offset": 0,
        "slot": "10",
        "type": "t_address"
      },
      {
        "astId": 4333,
        "contract": "contracts/accessories/Scarf.sol:Scarf",
        "label": "s_feeCollector",
        "offset": 0,
        "slot": "11",
        "type": "t_address"
      },
      {
        "astId": 4336,
        "contract": "contracts/accessories/Scarf.sol:Scarf",
        "label": "s_tokenIds",
        "offset": 0,
        "slot": "12",
        "type": "t_struct(Counter)1967_storage"
      },
      {
        "astId": 4341,
        "contract": "contracts/accessories/Scarf.sol:Scarf",
        "label": "s_attributes",
        "offset": 0,
        "slot": "13",
        "type": "t_mapping(t_uint256,t_struct(Scarf)6573_storage)"
      }
    ],
    "types": {
      "t_address": {
        "encoding": "inplace",
        "label": "address",
        "numberOfBytes": "20"
      },
      "t_array(t_uint256)dyn_storage": {
        "base": "t_uint256",
        "encoding": "dynamic_array",
        "label": "uint256[]",
        "numberOfBytes": "32"
      },
      "t_bool": {
        "encoding": "inplace",
        "label": "bool",
        "numberOfBytes": "1"
      },
      "t_mapping(t_address,t_bool)": {
        "encoding": "mapping",
        "key": "t_address",
        "label": "mapping(address => bool)",
        "numberOfBytes": "32",
        "value": "t_bool"
      },
      "t_mapping(t_address,t_mapping(t_address,t_bool))": {
        "encoding": "mapping",
        "key": "t_address",
        "label": "mapping(address => mapping(address => bool))",
        "numberOfBytes": "32",
        "value": "t_mapping(t_address,t_bool)"
      },
      "t_mapping(t_address,t_mapping(t_uint256,t_uint256))": {
        "encoding": "mapping",
        "key": "t_address",
        "label": "mapping(address => mapping(uint256 => uint256))",
        "numberOfBytes": "32",
        "value": "t_mapping(t_uint256,t_uint256)"
      },
      "t_mapping(t_address,t_uint256)": {
        "encoding": "mapping",
        "key": "t_address",
        "label": "mapping(address => uint256)",
        "numberOfBytes": "32",
        "value": "t_uint256"
      },
      "t_mapping(t_uint256,t_address)": {
        "encoding": "mapping",
        "key": "t_uint256",
        "label": "mapping(uint256 => address)",
        "numberOfBytes": "32",
        "value": "t_address"
      },
      "t_mapping(t_uint256,t_struct(Scarf)6573_storage)": {
        "encoding": "mapping",
        "key": "t_uint256",
        "label": "mapping(uint256 => struct DataTypes.Scarf)",
        "numberOfBytes": "32",
        "value": "t_struct(Scarf)6573_storage"
      },
      "t_mapping(t_uint256,t_uint256)": {
        "encoding": "mapping",
        "key": "t_uint256",
        "label": "mapping(uint256 => uint256)",
        "numberOfBytes": "32",
        "value": "t_uint256"
      },
      "t_string_storage": {
        "encoding": "bytes",
        "label": "string",
        "numberOfBytes": "32"
      },
      "t_struct(Counter)1967_storage": {
        "encoding": "inplace",
        "label": "struct Counters.Counter",
        "members": [
          {
            "astId": 1966,
            "contract": "contracts/accessories/Scarf.sol:Scarf",
            "label": "_value",
            "offset": 0,
            "slot": "0",
            "type": "t_uint256"
          }
        ],
        "numberOfBytes": "32"
      },
      "t_struct(Scarf)6573_storage": {
        "encoding": "inplace",
        "label": "struct DataTypes.Scarf",
        "members": [
          {
            "astId": 6572,
            "contract": "contracts/accessories/Scarf.sol:Scarf",
            "label": "color",
            "offset": 0,
            "slot": "0",
            "type": "t_string_storage"
          }
        ],
        "numberOfBytes": "32"
      },
      "t_uint256": {
        "encoding": "inplace",
        "label": "uint256",
        "numberOfBytes": "32"
      }
    }
  }
}