{
  "address": "0x610178dA211FEF7D417bC0e6FeD39F05609AD788",
  "abi": [
    {
      "inputs": [
        {
          "internalType": "address",
          "name": "feeCollector",
          "type": "address"
        }
      ],
      "stateMutability": "nonpayable",
      "type": "constructor"
    },
    {
      "inputs": [],
      "name": "Snowman__AcccessoryAlreadyExists",
      "type": "error"
    },
    {
      "inputs": [],
      "name": "Snowman__AccessoriesCountMismatch",
      "type": "error"
    },
    {
      "inputs": [],
      "name": "Snowman__AccessoryAlreadyWorn",
      "type": "error"
    },
    {
      "inputs": [],
      "name": "Snowman__AccessoryNotWorn",
      "type": "error"
    },
    {
      "inputs": [],
      "name": "Snowman__CannotWearAccessory",
      "type": "error"
    },
    {
      "inputs": [],
      "name": "Snowman__InvalidFeeCollector",
      "type": "error"
    },
    {
      "inputs": [],
      "name": "Snowman__InvalidMintFee",
      "type": "error"
    },
    {
      "inputs": [],
      "name": "Snowman__NoAccessories",
      "type": "error"
    },
    {
      "inputs": [],
      "name": "Snowman__NoFeesAvailable",
      "type": "error"
    },
    {
      "inputs": [],
      "name": "Snowman__NotAccessoryOwner",
      "type": "error"
    },
    {
      "inputs": [],
      "name": "Snowman__NotEnoughEth",
      "type": "error"
    },
    {
      "inputs": [],
      "name": "Snowman__NotMinted",
      "type": "error"
    },
    {
      "inputs": [],
      "name": "Snowman__NotOwner",
      "type": "error"
    },
    {
      "inputs": [],
      "name": "Snowman__UnavailableAccessory",
      "type": "error"
    },
    {
      "inputs": [],
      "name": "Snowman__WithdrawalFailed",
      "type": "error"
    },
    {
      "inputs": [],
      "name": "Snowman__ZeroAddress",
      "type": "error"
    },
    {
      "inputs": [],
      "name": "TypeCast__toUint256_OutOfBounds",
      "type": "error"
    },
    {
      "anonymous": false,
      "inputs": [
        {
          "indexed": false,
          "internalType": "address[]",
          "name": "accessories",
          "type": "address[]"
        }
      ],
      "name": "AccessoriesAdded",
      "type": "event"
    },
    {
      "anonymous": false,
      "inputs": [
        {
          "indexed": false,
          "internalType": "address[]",
          "name": "accessories",
          "type": "address[]"
        }
      ],
      "name": "AccessoriesAdded",
      "type": "event"
    },
    {
      "anonymous": false,
      "inputs": [
        {
          "components": [
            {
              "internalType": "address",
              "name": "_address",
              "type": "address"
            },
            {
              "internalType": "enum DataTypes.AccessoryPosition",
              "name": "position",
              "type": "uint8"
            }
          ],
          "indexed": false,
          "internalType": "struct DataTypes.Accessory[]",
          "name": "accessories",
          "type": "tuple[]"
        },
        {
          "indexed": false,
          "internalType": "uint256",
          "name": "snowmanId",
          "type": "uint256"
        }
      ],
      "name": "AccessoriesRemoved",
      "type": "event"
    },
    {
      "anonymous": false,
      "inputs": [
        {
          "indexed": false,
          "internalType": "address",
          "name": "accessory",
          "type": "address"
        }
      ],
      "name": "AccessoryAdded",
      "type": "event"
    },
    {
      "anonymous": false,
      "inputs": [
        {
          "indexed": false,
          "internalType": "address",
          "name": "accessory",
          "type": "address"
        }
      ],
      "name": "AccessoryAdded",
      "type": "event"
    },
    {
      "anonymous": false,
      "inputs": [
        {
          "indexed": false,
          "internalType": "address",
          "name": "accessory",
          "type": "address"
        },
        {
          "indexed": false,
          "internalType": "uint256",
          "name": "snowmanId",
          "type": "uint256"
        }
      ],
      "name": "AccessoryRemoved",
      "type": "event"
    },
    {
      "anonymous": false,
      "inputs": [
        {
          "indexed": true,
          "internalType": "address",
          "name": "owner",
          "type": "address"
        },
        {
          "indexed": true,
          "internalType": "address",
          "name": "approved",
          "type": "address"
        },
        {
          "indexed": true,
          "internalType": "uint256",
          "name": "tokenId",
          "type": "uint256"
        }
      ],
      "name": "Approval",
      "type": "event"
    },
    {
      "anonymous": false,
      "inputs": [
        {
          "indexed": true,
          "internalType": "address",
          "name": "owner",
          "type": "address"
        },
        {
          "indexed": true,
          "internalType": "address",
          "name": "operator",
          "type": "address"
        },
        {
          "indexed": false,
          "internalType": "bool",
          "name": "approved",
          "type": "bool"
        }
      ],
      "name": "ApprovalForAll",
      "type": "event"
    },
    {
      "anonymous": false,
      "inputs": [
        {
          "indexed": false,
          "internalType": "address",
          "name": "oldFeeCollector",
          "type": "address"
        },
        {
          "indexed": false,
          "internalType": "address",
          "name": "newFeeCollector",
          "type": "address"
        }
      ],
      "name": "FeeCollectorChanged",
      "type": "event"
    },
    {
      "anonymous": false,
      "inputs": [
        {
          "indexed": false,
          "internalType": "uint256",
          "name": "amount",
          "type": "uint256"
        }
      ],
      "name": "FeesWithdrawn",
      "type": "event"
    },
    {
      "anonymous": false,
      "inputs": [
        {
          "indexed": true,
          "internalType": "address",
          "name": "previousOwner",
          "type": "address"
        },
        {
          "indexed": true,
          "internalType": "address",
          "name": "newOwner",
          "type": "address"
        }
      ],
      "name": "OwnershipTransferred",
      "type": "event"
    },
    {
      "anonymous": false,
      "inputs": [
        {
          "indexed": true,
          "internalType": "address",
          "name": "from",
          "type": "address"
        },
        {
          "indexed": true,
          "internalType": "address",
          "name": "to",
          "type": "address"
        },
        {
          "indexed": true,
          "internalType": "uint256",
          "name": "tokenId",
          "type": "uint256"
        }
      ],
      "name": "Transfer",
      "type": "event"
    },
    {
      "inputs": [
        {
          "internalType": "address",
          "name": "accessory",
          "type": "address"
        },
        {
          "internalType": "uint256",
          "name": "snowmanId",
          "type": "uint256"
        }
      ],
      "name": "accessoryId",
      "outputs": [
        {
          "internalType": "uint256",
          "name": "",
          "type": "uint256"
        }
      ],
      "stateMutability": "view",
      "type": "function"
    },
    {
      "inputs": [
        {
          "internalType": "address[]",
          "name": "accessories",
          "type": "address[]"
        },
        {
          "internalType": "enum DataTypes.AccessoryPosition[]",
          "name": "positions",
          "type": "uint8[]"
        }
      ],
      "name": "addAccessories",
      "outputs": [],
      "stateMutability": "nonpayable",
      "type": "function"
    },
    {
      "inputs": [
        {
          "internalType": "address",
          "name": "accessory",
          "type": "address"
        },
        {
          "internalType": "enum DataTypes.AccessoryPosition",
          "name": "position",
          "type": "uint8"
        }
      ],
      "name": "addAccessory",
      "outputs": [],
      "stateMutability": "nonpayable",
      "type": "function"
    },
    {
      "inputs": [
        {
          "internalType": "address",
          "name": "to",
          "type": "address"
        },
        {
          "internalType": "uint256",
          "name": "tokenId",
          "type": "uint256"
        }
      ],
      "name": "approve",
      "outputs": [],
      "stateMutability": "nonpayable",
      "type": "function"
    },
    {
      "inputs": [
        {
          "internalType": "address",
          "name": "owner",
          "type": "address"
        }
      ],
      "name": "balanceOf",
      "outputs": [
        {
          "internalType": "uint256",
          "name": "",
          "type": "uint256"
        }
      ],
      "stateMutability": "view",
      "type": "function"
    },
    {
      "inputs": [],
      "name": "getAccessories",
      "outputs": [
        {
          "components": [
            {
              "internalType": "address",
              "name": "_address",
              "type": "address"
            },
            {
              "internalType": "enum DataTypes.AccessoryPosition",
              "name": "position",
              "type": "uint8"
            }
          ],
          "internalType": "struct DataTypes.Accessory[]",
          "name": "",
          "type": "tuple[]"
        }
      ],
      "stateMutability": "view",
      "type": "function"
    },
    {
      "inputs": [
        {
          "internalType": "address",
          "name": "accessory",
          "type": "address"
        },
        {
          "internalType": "uint256",
          "name": "snowmanId",
          "type": "uint256"
        }
      ],
      "name": "getAccessoryById",
      "outputs": [
        {
          "internalType": "uint256",
          "name": "",
          "type": "uint256"
        }
      ],
      "stateMutability": "view",
      "type": "function"
    },
    {
      "inputs": [
        {
          "internalType": "uint256",
          "name": "tokenId",
          "type": "uint256"
        }
      ],
      "name": "getApproved",
      "outputs": [
        {
          "internalType": "address",
          "name": "",
          "type": "address"
        }
      ],
      "stateMutability": "view",
      "type": "function"
    },
    {
      "inputs": [],
      "name": "getFeeCollector",
      "outputs": [
        {
          "internalType": "address",
          "name": "",
          "type": "address"
        }
      ],
      "stateMutability": "view",
      "type": "function"
    },
    {
      "inputs": [
        {
          "internalType": "address",
          "name": "accessory",
          "type": "address"
        },
        {
          "internalType": "uint256",
          "name": "snowmanId",
          "type": "uint256"
        }
      ],
      "name": "hasAccessory",
      "outputs": [
        {
          "internalType": "bool",
          "name": "",
          "type": "bool"
        }
      ],
      "stateMutability": "view",
      "type": "function"
    },
    {
      "inputs": [
        {
          "internalType": "address",
          "name": "accessory",
          "type": "address"
        }
      ],
      "name": "isAccessoryAvailable",
      "outputs": [
        {
          "internalType": "bool",
          "name": "",
          "type": "bool"
        }
      ],
      "stateMutability": "view",
      "type": "function"
    },
    {
      "inputs": [
        {
          "internalType": "address",
          "name": "owner",
          "type": "address"
        },
        {
          "internalType": "address",
          "name": "operator",
          "type": "address"
        }
      ],
      "name": "isApprovedForAll",
      "outputs": [
        {
          "internalType": "bool",
          "name": "",
          "type": "bool"
        }
      ],
      "stateMutability": "view",
      "type": "function"
    },
    {
      "inputs": [],
      "name": "mint",
      "outputs": [
        {
          "internalType": "uint256",
          "name": "",
          "type": "uint256"
        }
      ],
      "stateMutability": "payable",
      "type": "function"
    },
    {
      "inputs": [],
      "name": "name",
      "outputs": [
        {
          "internalType": "string",
          "name": "",
          "type": "string"
        }
      ],
      "stateMutability": "view",
      "type": "function"
    },
    {
      "inputs": [
        {
          "internalType": "address",
          "name": "operator",
          "type": "address"
        },
        {
          "internalType": "address",
          "name": "from",
          "type": "address"
        },
        {
          "internalType": "uint256",
          "name": "tokenId",
          "type": "uint256"
        },
        {
          "internalType": "bytes",
          "name": "snowmanIdData",
          "type": "bytes"
        }
      ],
      "name": "onERC721Received",
      "outputs": [
        {
          "internalType": "bytes4",
          "name": "",
          "type": "bytes4"
        }
      ],
      "stateMutability": "nonpayable",
      "type": "function"
    },
    {
      "inputs": [],
      "name": "owner",
      "outputs": [
        {
          "internalType": "address",
          "name": "",
          "type": "address"
        }
      ],
      "stateMutability": "view",
      "type": "function"
    },
    {
      "inputs": [
        {
          "internalType": "uint256",
          "name": "tokenId",
          "type": "uint256"
        }
      ],
      "name": "ownerOf",
      "outputs": [
        {
          "internalType": "address",
          "name": "",
          "type": "address"
        }
      ],
      "stateMutability": "view",
      "type": "function"
    },
    {
      "inputs": [
        {
          "internalType": "address",
          "name": "accessory",
          "type": "address"
        },
        {
          "internalType": "uint256",
          "name": "snowmanId",
          "type": "uint256"
        }
      ],
      "name": "removeAccessory",
      "outputs": [],
      "stateMutability": "nonpayable",
      "type": "function"
    },
    {
      "inputs": [
        {
          "internalType": "uint256",
          "name": "snowmanId",
          "type": "uint256"
        }
      ],
      "name": "removeAllAccessories",
      "outputs": [],
      "stateMutability": "nonpayable",
      "type": "function"
    },
    {
      "inputs": [
        {
          "internalType": "uint256",
          "name": "tokenId",
          "type": "uint256"
        }
      ],
      "name": "renderTokenById",
      "outputs": [
        {
          "internalType": "string",
          "name": "",
          "type": "string"
        }
      ],
      "stateMutability": "view",
      "type": "function"
    },
    {
      "inputs": [],
      "name": "renounceOwnership",
      "outputs": [],
      "stateMutability": "nonpayable",
      "type": "function"
    },
    {
      "inputs": [
        {
          "internalType": "address",
          "name": "from",
          "type": "address"
        },
        {
          "internalType": "address",
          "name": "to",
          "type": "address"
        },
        {
          "internalType": "uint256",
          "name": "tokenId",
          "type": "uint256"
        }
      ],
      "name": "safeTransferFrom",
      "outputs": [],
      "stateMutability": "nonpayable",
      "type": "function"
    },
    {
      "inputs": [
        {
          "internalType": "address",
          "name": "from",
          "type": "address"
        },
        {
          "internalType": "address",
          "name": "to",
          "type": "address"
        },
        {
          "internalType": "uint256",
          "name": "tokenId",
          "type": "uint256"
        },
        {
          "internalType": "bytes",
          "name": "data",
          "type": "bytes"
        }
      ],
      "name": "safeTransferFrom",
      "outputs": [],
      "stateMutability": "nonpayable",
      "type": "function"
    },
    {
      "inputs": [
        {
          "internalType": "address",
          "name": "operator",
          "type": "address"
        },
        {
          "internalType": "bool",
          "name": "approved",
          "type": "bool"
        }
      ],
      "name": "setApprovalForAll",
      "outputs": [],
      "stateMutability": "nonpayable",
      "type": "function"
    },
    {
      "inputs": [
        {
          "internalType": "address",
          "name": "newFeeCollector",
          "type": "address"
        }
      ],
      "name": "setFeeCollector",
      "outputs": [],
      "stateMutability": "nonpayable",
      "type": "function"
    },
    {
      "inputs": [
        {
          "internalType": "bytes4",
          "name": "interfaceId",
          "type": "bytes4"
        }
      ],
      "name": "supportsInterface",
      "outputs": [
        {
          "internalType": "bool",
          "name": "",
          "type": "bool"
        }
      ],
      "stateMutability": "view",
      "type": "function"
    },
    {
      "inputs": [],
      "name": "symbol",
      "outputs": [
        {
          "internalType": "string",
          "name": "",
          "type": "string"
        }
      ],
      "stateMutability": "view",
      "type": "function"
    },
    {
      "inputs": [
        {
          "internalType": "uint256",
          "name": "index",
          "type": "uint256"
        }
      ],
      "name": "tokenByIndex",
      "outputs": [
        {
          "internalType": "uint256",
          "name": "",
          "type": "uint256"
        }
      ],
      "stateMutability": "view",
      "type": "function"
    },
    {
      "inputs": [
        {
          "internalType": "address",
          "name": "owner",
          "type": "address"
        },
        {
          "internalType": "uint256",
          "name": "index",
          "type": "uint256"
        }
      ],
      "name": "tokenOfOwnerByIndex",
      "outputs": [
        {
          "internalType": "uint256",
          "name": "",
          "type": "uint256"
        }
      ],
      "stateMutability": "view",
      "type": "function"
    },
    {
      "inputs": [
        {
          "internalType": "uint256",
          "name": "tokenId",
          "type": "uint256"
        }
      ],
      "name": "tokenURI",
      "outputs": [
        {
          "internalType": "string",
          "name": "",
          "type": "string"
        }
      ],
      "stateMutability": "view",
      "type": "function"
    },
    {
      "inputs": [],
      "name": "totalSupply",
      "outputs": [
        {
          "internalType": "uint256",
          "name": "",
          "type": "uint256"
        }
      ],
      "stateMutability": "view",
      "type": "function"
    },
    {
      "inputs": [
        {
          "internalType": "address",
          "name": "from",
          "type": "address"
        },
        {
          "internalType": "address",
          "name": "to",
          "type": "address"
        },
        {
          "internalType": "uint256",
          "name": "tokenId",
          "type": "uint256"
        }
      ],
      "name": "transferFrom",
      "outputs": [],
      "stateMutability": "nonpayable",
      "type": "function"
    },
    {
      "inputs": [
        {
          "internalType": "address",
          "name": "newOwner",
          "type": "address"
        }
      ],
      "name": "transferOwnership",
      "outputs": [],
      "stateMutability": "nonpayable",
      "type": "function"
    },
    {
      "inputs": [],
      "name": "withdrawFees",
      "outputs": [],
      "stateMutability": "nonpayable",
      "type": "function"
    }
  ],
  "transactionHash": "0x65924222e436e3d8ec60921dea9537e08c1fc491e8a230ba9f2cf10a0d91c774",
  "args": [
    "0xf39Fd6e51aad88F6F4ce6aB8827279cffFb92266"
  ],
  "numDeployments": 1,
  "solcInputHash": "f7c322bb55226d6d888297f97025c99b",
  "bytecode": "0x60806040523461038557604051601f612ab338819003918201601f19168301916001600160401b038311848410176102905780849260209460405283398101031261038557516001600160a01b038116908190036103855761005f61038a565b9061006861038a565b82519091906001600160401b03811161029057600054600181811c9116801561037b575b602082101461027057601f8111610317575b506020601f82116001146102b157819293946000926102a6575b50508160011b916000199060031b1c1916176000555b81516001600160401b03811161029057600154600181811c91168015610286575b602082101461027057601f811161020b575b50602092601f82116001146101a6579281929360009261019b575b50508160011b916000199060031b1c1916176001555b600a8054336001600160a01b0319821681179092556040519291906001600160a01b03167f8be0079c531659141344cd1fd0a4f28419497f9722a3daafe3b4186f6b6457e0600080a3600b80546001600160a01b0319169190911790556126f590816103be8239f35b01519050388061011c565b601f198216936001600052806000209160005b8681106101f357508360019596106101da575b505050811b01600155610132565b015160001960f88460031b161c191690553880806101cc565b919260206001819286850151815501940192016101b9565b60016000527fb10e2d527612073b26eecdfd717e6a320cf44b4afac2b0732d9fcbe2b7fa0cf6601f830160051c81019160208410610266575b601f0160051c01905b81811061025a5750610101565b6000815560010161024d565b9091508190610244565b634e487b7160e01b600052602260045260246000fd5b90607f16906100ef565b634e487b7160e01b600052604160045260246000fd5b0151905038806100b8565b601f1982169060008052806000209160005b8181106102ff575095836001959697106102e6575b505050811b016000556100ce565b015160001960f88460031b161c191690553880806102d8565b9192602060018192868b0151815501940192016102c3565b600080527f290decd9548b62a8d60345a988386fc84ba6bc95484008f6362f93160ef3e563601f830160051c81019160208410610371575b601f0160051c01905b818110610365575061009e565b60008155600101610358565b909150819061034f565b90607f169061008c565b600080fd5b60408051919082016001600160401b0381118382101761029057604052600782526629b737bbb6b0b760c91b602083015256fe6080604052600436101561001257600080fd5b60003560e01c806301ffc9a71461023757806306fdde0314610232578063081812fc1461022d578063095ea7b3146102285780631249c58b1461022357806312fde4b71461021e578063150b7a021461021957806318160ddd1461021457806323b872dd1461020f5780632f745c591461020a57806342842e0e14610205578063476343ee146102005780634f6ccce7146101fb578063528088cd146101f65780636352211e146101f157806370a08231146101ec578063715018a6146101e75780637cb3b0bd146101e25780638da5cb5b146101dd5780639457e3ad146101d857806395d89b41146101d3578063a22cb465146101ce578063a2b4df33146101c9578063a2d6c6da146101c4578063a42dce80146101bf578063a5ff125f146101ba578063b761fdb1146101b5578063b88d4fde146101b0578063c2365a40146101ab578063c87b56dd146101a6578063ca3855f6146101a1578063d1cb8c691461019c578063e985e9c5146101975763f2fde38b1461019257600080fd5b611612565b6115aa565b611568565b611496565b61138f565b6112c8565b611260565b611150565b611013565b610f29565b610e31565b610df7565b610cfd565b610c4b565b610bbc565b610b93565b610b08565b610aab565b610a7c565b610a5e565b61099f565b61087c565b61081f565b6107f5565b61073e565b610715565b6106cb565b610634565b61060b565b61053f565b61045e565b61041d565b610343565b610253565b6001600160e01b031981160361024e57565b600080fd5b3461024e57602036600319011261024e576004356102708161023c565b63ffffffff60e01b1663780e9d6360e01b8114908115610299575b506040519015158152602090f35b6380ac58cd60e01b8114915081156102cb575b81156102ba575b503861028b565b6301ffc9a760e01b149050386102b3565b635b5e139f60e01b811491506102ac565b600091031261024e57565b60005b8381106102fa5750506000910152565b81810151838201526020016102ea565b90602091610323815180928185528580860191016102e7565b601f01601f1916010190565b90602061034092818152019061030a565b90565b3461024e57600036600319011261024e5760405160008054610364816116e3565b80845290600181169081156103f9575060011461039c575b6103988361038c818503826111eb565b6040519182918261032f565b0390f35b60008080527f290decd9548b62a8d60345a988386fc84ba6bc95484008f6362f93160ef3e563939250905b8082106103df5750909150810160200161038c61037c565b9192600181602092548385880101520191019092916103c7565b60ff191660208086019190915291151560051b8401909101915061038c905061037c565b3461024e57602036600319011261024e57602061043b6004356117a0565b6040516001600160a01b039091168152f35b6001600160a01b0381160361024e57565b3461024e57604036600319011261024e5760043561047b8161044d565b60243561048781611a60565b916001600160a01b0380841690821681146104f0576104b9936104b49133149081156104bb575b506117de565b611cc0565b005b6001600160a01b0316600090815260056020908152604080832033845290915290206104ea91505b5460ff1690565b386104ae565b60405162461bcd60e51b815260206004820152602160248201527f4552433732313a20617070726f76616c20746f2063757272656e74206f776e656044820152603960f91b6064820152608490fd5b600036600319011261024e5766470de4df82000034036105fa576105676001600c5401600c55565b600c546105748133611d78565b730165878A594ca255338adfa4d48449f69242Eb8F90813b1561024e5760405163391b088d60e01b8152600d60048201526024810182905291600090839060449082905af49182156105f557610398926105da575b506040519081529081906020820190565b806105e960006105ef936111eb565b806102dc565b386105c9565b611850565b63198d8b9f60e01b60005260046000fd5b3461024e57600036600319011261024e57600b546040516001600160a01b039091168152602090f35b3461024e57608036600319011261024e5761065060043561044d565b60243561065c8161044d565b604435906064359067ffffffffffffffff821161024e573660238301121561024e5781600401359067ffffffffffffffff821161024e57366024838501011161024e576103989360246106b094019161185c565b6040516001600160e01b031990911681529081906020820190565b3461024e57600036600319011261024e576020600854604051908152f35b606090600319011261024e576004356107018161044d565b9060243561070e8161044d565b9060443590565b3461024e576104b9610726366106e9565b916107396107348433611eb6565b611943565b611f92565b3461024e57604036600319011261024e5760043561075b8161044d565b6024359061076881611a83565b82101561079c576001600160a01b031660009081526006602090815260408083209383529281529082902054915191825290f35b60405162461bcd60e51b815260206004820152602b60248201527f455243373231456e756d657261626c653a206f776e657220696e646578206f7560448201526a74206f6620626f756e647360a81b6064820152608490fd5b3461024e576104b9610806366106e9565b90604051926108166020856111eb565b60008452611c78565b3461024e57600036600319011261024e57471561086b57600080808060018060a01b03600b541647905af16108526119a5565b501561085a57005b63e56baab760e01b60005260046000fd5b630b264f8360e31b60005260046000fd5b3461024e57602036600319011261024e576004356008548110156108cd5760086000527ff3f7a9fe364faab93b216da50a3214154f22a0a2b415b23a84c8169e8b636ee30154604051908152602090f35b60405162461bcd60e51b815260206004820152602c60248201527f455243373231456e756d657261626c653a20676c6f62616c20696e646578206f60448201526b7574206f6620626f756e647360a01b6064820152608490fd5b9060028210156109345752565b634e487b7160e01b600052602160045260246000fd5b602060408183019282815284518094520192019060005b81811061096e5750505090565b90919260206040600192610994838851868060a01b038151168452015184830190610927565b019401929101610961565b3461024e57600036600319011261024e57600e5467ffffffffffffffff8111610a5957604051906109d660208260051b01836111eb565b80825260208201600e6000527fbb7b4a454dc3493923482f07822329ed19e8244eff582cc204f8554c3620c3fd6000915b838310610a1c5760405180610398878261094a565b600160208192604051610a2e816111b3565b610a4b60ff8754868060a01b038116845260a01c16848301611a08565b815201920192019190610a07565b61119d565b3461024e57602036600319011261024e57602061043b600435611a60565b3461024e57602036600319011261024e576020610aa3600435610a9e8161044d565b611a83565b604051908152f35b3461024e57600036600319011261024e57610ac46120ed565b600a80546001600160a01b031981169091556000906001600160a01b03167f8be0079c531659141344cd1fd0a4f28419497f9722a3daafe3b4186f6b6457e08280a3005b3461024e5760006020366003190112610b9057735FC8d32690cc91D4c39d9d3abcBD16989F87570781600435823b15610b8e57604051928380809363efa9872960e01b825260606004830152610b6060648301611afa565b9060106024840152604483015203915af480156105f5578290610b805780f35b610b89916111eb565b388180f35b505b80fd5b3461024e57600036600319011261024e57600a546040516001600160a01b039091168152602090f35b3461024e5760006040366003190112610b9057600435610bdb8161044d565b81602435735FC8d32690cc91D4c39d9d3abcBD16989F875707803b15610c475760405163c6ebe1a360e01b8152600f6004820152601060248201526001600160a01b039490941660448501526064840191909152829060849082905af480156105f5578290610b805780f35b8280fd5b3461024e57600036600319011261024e576040516000600154610c6d816116e3565b80845290600181169081156103f95750600114610c94576103988361038c818503826111eb565b600160009081527fb10e2d527612073b26eecdfd717e6a320cf44b4afac2b0732d9fcbe2b7fa0cf6939250905b808210610cd95750909150810160200161038c61037c565b919260018160209254838588010152019101909291610cc1565b8015150361024e57565b3461024e57604036600319011261024e57600435610d1a8161044d565b602435610d2681610cf3565b6001600160a01b03821691338314610da85781610d65610d769233600052600560205260406000209060018060a01b0316600052602052604060002090565b9060ff801983541691151516179055565b604051901515815233907f17307eab39ab6107e8899845ad3d59bd9653f200f220920489ca2b5937696c3190602090a3005b60405162461bcd60e51b815260206004820152601960248201527f4552433732313a20617070726f766520746f2063616c6c6572000000000000006044820152606490fd5b6002111561024e57565b3461024e57604036600319011261024e576104b9600435610e178161044d565b60243590610e2482610ded565b610e2c6120ed565b612145565b3461024e57602036600319011261024e57610ece6000600435808252600d60205260408220600460405191610e65836111cf565b8054835260018101546020840152604051610e8e81610e87816002860161171d565b03826111eb565b6040840152604051610ea781610e87816003860161171d565b60608401520154608082015260405163175020f560e21b8152938492839260048401611c09565b038173Dc64a140Aa3E981100a9becA4E685f962f0cF6C95af480156105f55761039891600091610f06575b506040519182918261032f565b610f2391503d806000833e610f1b81836111eb565b810190611baa565b38610ef9565b3461024e57602036600319011261024e57600435610f468161044d565b610f4e6120ed565b600b54906001600160a01b038083169082168015610fd157818114610fc0576001600160a01b031993909316909217600b55604080516001600160a01b0393841681529190921660208201527f649c5e3d0ed183894196148e193af316452b0037e77d2ff0fef23b7dc722bed09190a1005b6348c41f9b60e01b60005260046000fd5b630503d1d560e41b60005260046000fd5b9181601f8401121561024e5782359167ffffffffffffffff831161024e576020808501948460051b01011161024e57565b3461024e57604036600319011261024e5760043567ffffffffffffffff811161024e57611044903690600401610fe2565b60243567ffffffffffffffff811161024e57611064903690600401610fe2565b9061106d6120ed565b821561113f5781830361112e5760005b8381106110f757505050604051908060208301602084525260408201929060005b8181106110cd577f32f2370e0dc4460c7df1749be2f9ddafd4c5f97d6a543e7c5ea205d02d49e60a84860385a1005b90919360208060019287356110e18161044d565b848060a01b03168152019501910191909161109e565b80611128611108600193878961227e565b356111128161044d565b61111d83878761227e565b3590610e2c82610ded565b0161107d565b6308dd6a9360e41b60005260046000fd5b637c7a2a9560e01b60005260046000fd5b3461024e57604036600319011261024e5760043561116d8161044d565b6024359060018060a01b031660005260106020526040600020906000526020526020604060002054604051908152f35b634e487b7160e01b600052604160045260246000fd5b6040810190811067ffffffffffffffff821117610a5957604052565b60a0810190811067ffffffffffffffff821117610a5957604052565b90601f8019910116810190811067ffffffffffffffff821117610a5957604052565b67ffffffffffffffff8111610a5957601f01601f191660200190565b9291926112358261120d565b9161124360405193846111eb565b82948184528183011161024e578281602093846000960137010152565b3461024e57608036600319011261024e5760043561127d8161044d565b6024359061128a8261044d565b6044356064359267ffffffffffffffff841161024e573660238501121561024e576112c26104b9943690602481600401359101611229565b92611c78565b3461024e57604036600319011261024e5761132960206004356112ea8161044d565b6024356040516345dbfbe360e11b8152600f6004820152601060248201526001600160a01b039092166044830152606482015291829081906084820190565b0381735FC8d32690cc91D4c39d9d3abcBD16989F8757075af480156105f55760009061135b575b604051908152602090f35b506020813d602011611387575b81611375602093836111eb565b8101031261024e576103989051611350565b3d9150611368565b3461024e57602036600319011261024e576004356000818152600260205260409020546001600160a01b031615611485576000818152600d6020526040808220905163346caf3d60e11b81526080600482015292839182916113f360848401611afa565b60106024850152600319848203016044850152825481526001830154602082015260a060408201526080600461144361143260a085016002880161171d565b84810360608601526003870161171d565b9401549101526064830152038173Dc64a140Aa3E981100a9becA4E685f962f0cF6C95af480156105f55761039891600091610f0657506040519182918261032f565b63df4d604f60e01b60005260046000fd5b3461024e57604036600319011261024e576114f760206004356114b88161044d565b6024356040516361dae5a760e11b8152600f6004820152601060248201526001600160a01b039092166044830152606482015291829081906084820190565b0381735FC8d32690cc91D4c39d9d3abcBD16989F8757075af480156105f55760009061152b575b6040519015158152602090f35b506020813d602011611560575b81611545602093836111eb565b8101031261024e57610398905161155b81610cf3565b61151e565b3d9150611538565b3461024e57602036600319011261024e576004356115858161044d565b60018060a01b0316600052600f602052602060ff604060002054166040519015158152f35b3461024e57604036600319011261024e57602060ff6116066004356115ce8161044d565b602435906115db8261044d565b60018060a01b03166000526005845260406000209060018060a01b0316600052602052604060002090565b54166040519015158152f35b3461024e57602036600319011261024e5760043561162f8161044d565b6116376120ed565b6001600160a01b0381161561168f57600a80546001600160a01b039283166001600160a01b0319821681179092559091167f8be0079c531659141344cd1fd0a4f28419497f9722a3daafe3b4186f6b6457e0600080a3005b60405162461bcd60e51b815260206004820152602660248201527f4f776e61626c653a206e6577206f776e657220697320746865207a65726f206160448201526564647265737360d01b6064820152608490fd5b90600182811c92168015611713575b60208310146116fd57565b634e487b7160e01b600052602260045260246000fd5b91607f16916116f2565b6000929181549161172d836116e3565b8083529260018116908115611783575060011461174957505050565b60009081526020812093945091925b838310611769575060209250010190565b600181602092949394548385870101520191019190611758565b915050602093945060ff929192191683830152151560051b010190565b6000818152600260205260409020546117c3906001600160a01b03161515611a14565b6000908152600460205260409020546001600160a01b031690565b156117e557565b60405162461bcd60e51b815260206004820152603d60248201527f4552433732313a20617070726f76652063616c6c6572206973206e6f7420746f60448201527f6b656e206f776e6572206f7220617070726f76656420666f7220616c6c0000006064820152608490fd5b6040513d6000823e3d90fd5b9161186991933691611229565b600060208251106119345750602001519061188382611a60565b6001600160a01b0391821691160361192357336000908152600f602052604090206118ad906104e3565b15611912573360009081526010602052604090206118d79082905b90600052602052604060002090565b54611901573360009081526010602052604090206118f591906118c8565b55630a85bd0160e11b90565b630ed9148160e01b60005260046000fd5b63249b262960e01b60005260046000fd5b6359bc8af160e01b60005260046000fd5b63605babf960e01b8152600490fd5b1561194a57565b60405162461bcd60e51b815260206004820152602d60248201527f4552433732313a2063616c6c6572206973206e6f7420746f6b656e206f776e6560448201526c1c881bdc88185c1c1c9bdd9959609a1b6064820152608490fd5b3d156119d0573d906119b68261120d565b916119c460405193846111eb565b82523d6000602084013e565b606090565b634e487b7160e01b600052603260045260246000fd5b8054821015611a035760005260206000200190600090565b6119d5565b60028210156109345752565b15611a1b57565b60405162461bcd60e51b815260206004820152601860248201527f4552433732313a20696e76616c696420746f6b656e20494400000000000000006044820152606490fd5b6000908152600260205260409020546001600160a01b0316610340811515611a14565b6001600160a01b03168015611aa357600052600360205260406000205490565b60405162461bcd60e51b815260206004820152602960248201527f4552433732313a2061646472657373207a65726f206973206e6f7420612076616044820152683634b21037bbb732b960b91b6064820152608490fd5b6020600e54918281520190600e60005260206000209060005b818110611b205750505090565b909192600160408192611b488754848060a01b038116835260ff602084019160a01c16610927565b019401929101611b13565b906020825491828152019160005260206000209060005b818110611b775750505090565b909192600160408192611b9f8754848060a01b038116835260ff602084019160a01c16610927565b019401929101611b6a565b60208183031261024e5780519067ffffffffffffffff821161024e570181601f8201121561024e578051611bdd8161120d565b92611beb60405194856111eb565b8184526020828401011161024e5761034091602080850191016102e7565b92919060609060808552611c2160808601600e611b53565b6010602087015285810360408701528151815260208201516020820152608080611c6d611c5d604086015160a0604087015260a086019061030a565b868601518582038887015261030a565b930151910152930152565b90611c9c939291611c8c6107348433611eb6565b611c97838383611f92565b61244f565b15611ca357565b60405162461bcd60e51b815280611cbc6004820161228e565b0390fd5b600082815260046020526040902080546001600160a01b0319166001600160a01b0383161790556001600160a01b03611cf883611a60565b6001600160a01b0390921691167f8c5be1e5ebec7d5bd14f71427d1e84f3dd0314c0f7b2291e5b200ac8c7c3b925600080a4565b15611d3357565b60405162461bcd60e51b815260206004820152601c60248201527f4552433732313a20746f6b656e20616c7265616479206d696e746564000000006044820152606490fd5b6001600160a01b038116908115611e7257600083815260026020526040902054611e3b9190611db0906001600160a01b031615611d2c565b611db98461252f565b82611e6357611dc7846125c7565b600084815260026020526040902054611de9906001600160a01b031615611d2c565b6001600160a01b038116600090815260036020526040902060018154019055611e1c846000526002602052604060002090565b80546001600160a01b0319166001600160a01b03909216919091179055565b60007fddf252ad1be2c89b69c2b068fc378daa952ba7f163c4a11628f55a4df523b3ef8180a4565b611e6d8482612589565b611dc7565b606460405162461bcd60e51b815260206004820152602060248201527f4552433732313a206d696e7420746f20746865207a65726f20616464726573736044820152fd5b6001600160a01b03611ec783611a60565b6001600160a01b0383169116818114939192908415611f08575b50508215611eee57505090565b9091506001600160a01b0390611f03906117a0565b161490565b60009081526005602090815260408083206001600160a01b03949094168352929052205460ff1692503880611ee1565b15611f3f57565b60405162461bcd60e51b815260206004820152602560248201527f4552433732313a207472616e736665722066726f6d20696e636f72726563742060448201526437bbb732b960d91b6064820152608490fd5b611f9b83611a60565b6001600160a01b038083169291611fb491168314611f38565b6001600160a01b03831692831561209c5761203a82611fd78784612075966122e1565b611ff985611ff3611fe78a611a60565b6001600160a01b031690565b14611f38565b612020612010886000526004602052604060002090565b80546001600160a01b0319169055565b6001600160a01b0316600090815260036020526040902090565b80546000190190556001600160a01b038116600090815260036020526040902060018154019055611e1c856000526002602052604060002090565b7fddf252ad1be2c89b69c2b068fc378daa952ba7f163c4a11628f55a4df523b3ef600080a4565b60405162461bcd60e51b8152602060048201526024808201527f4552433732313a207472616e7366657220746f20746865207a65726f206164646044820152637265737360e01b6064820152608490fd5b600a546001600160a01b0316330361210157565b606460405162461bcd60e51b815260206004820152602060248201527f4f776e61626c653a2063616c6c6572206973206e6f7420746865206f776e65726044820152fd5b6001600160a01b0381166000908152600f602052604090205460ff1661226d576001600160a01b0381166000908152600f60205260409020805460ff1916600117905560405191612195836111b3565b6001600160a01b038216835260208301906121b09082611a08565b600e54600160401b811015610a59578060016121d19201600e55600e6119eb565b939093612257575183546001600160a01b0319166001600160a01b03919091161783555190600282101561093457825460ff60a01b191660a09290921b60ff60a01b16919091179091556040516001600160a01b0390911681527f8201825e315682fab446f6a324905f8105e6d8c15c9f8267df13444975c54cd99080602081010390a1565b634e487b7160e01b600052600060045260246000fd5b6314d062a360e21b60005260046000fd5b9190811015611a035760051b0190565b60809060208152603260208201527f4552433732313a207472616e7366657220746f206e6f6e20455243373231526560408201527131b2b4bb32b91034b6b83632b6b2b73a32b960711b60608201520190565b9091906001600160a01b038116908161232d57506122fe8261252f565b6001600160a01b0383168061231b57505061231991506125c7565b565b03612324575050565b61231991612589565b6001600160a01b0384168203612344575b506122fe565b61234d81611a83565b600019810191908211612404576000916118c86123aa92868552600760205260408520548381036123b1575b508461238f886000526007602052604060002090565b556001600160a01b0316600090815260066020526040902090565b553861233e565b8686526006602052604086208487526020526123fd6040872054806123ec846118c88760018060a01b03166000526006602052604060002090565b556000526007602052604060002090565b5538612379565b612519565b9081602091031261024e57516103408161023c565b6001600160a01b0391821681529116602082015260408101919091526080606082018190526103409291019061030a565b919290803b156125105761248093600060209460405196879586948593630a85bd0160e11b8552336004860161241e565b03926001600160a01b03165af1600091816124df575b506124c9576124a36119a5565b805190816124c45760405162461bcd60e51b815280611cbc6004820161228e565b602001fd5b6001600160e01b031916630a85bd0160e11b1490565b61250291925060203d602011612509575b6124fa81836111eb565b810190612409565b9038612496565b503d6124f0565b50505050600190565b634e487b7160e01b600052601160045260246000fd5b60085481600052600960205280604060002055600160401b811015610a595760018101600855600854811015611a035760086000527ff3f7a9fe364faab93b216da50a3214154f22a0a2b415b23a84c8169e8b636ee30155565b9061259382611a83565b9160018060a01b03166000526006602052604060002082600052602052806040600020556000526007602052604060002055565b6008546000198101918183116124045780600052600960205281604060002054931015611a035760086000527ff3f7a9fe364faab93b216da50a3214154f22a0a2b415b23a84c8169e8b636ee282015491831015611a03577ff3f7a9fe364faab93b216da50a3214154f22a0a2b415b23a84c8169e8b636ee383018290556000918252600960205260408083209390935581529081205560085480156126a957600019810190600854821015611a0357600860008181527ff3f7a9fe364faab93b216da50a3214154f22a0a2b415b23a84c8169e8b636ee29092019190915555565b634e487b7160e01b600052603160045260246000fdfea264697066735822122097f5631590dbedb2eb2a43e15b994411396ba56fd152f8edf097b9989c47397e64736f6c634300081c0033",
  "deployedBytecode": "0x6080604052600436101561001257600080fd5b60003560e01c806301ffc9a71461023757806306fdde0314610232578063081812fc1461022d578063095ea7b3146102285780631249c58b1461022357806312fde4b71461021e578063150b7a021461021957806318160ddd1461021457806323b872dd1461020f5780632f745c591461020a57806342842e0e14610205578063476343ee146102005780634f6ccce7146101fb578063528088cd146101f65780636352211e146101f157806370a08231146101ec578063715018a6146101e75780637cb3b0bd146101e25780638da5cb5b146101dd5780639457e3ad146101d857806395d89b41146101d3578063a22cb465146101ce578063a2b4df33146101c9578063a2d6c6da146101c4578063a42dce80146101bf578063a5ff125f146101ba578063b761fdb1146101b5578063b88d4fde146101b0578063c2365a40146101ab578063c87b56dd146101a6578063ca3855f6146101a1578063d1cb8c691461019c578063e985e9c5146101975763f2fde38b1461019257600080fd5b611612565b6115aa565b611568565b611496565b61138f565b6112c8565b611260565b611150565b611013565b610f29565b610e31565b610df7565b610cfd565b610c4b565b610bbc565b610b93565b610b08565b610aab565b610a7c565b610a5e565b61099f565b61087c565b61081f565b6107f5565b61073e565b610715565b6106cb565b610634565b61060b565b61053f565b61045e565b61041d565b610343565b610253565b6001600160e01b031981160361024e57565b600080fd5b3461024e57602036600319011261024e576004356102708161023c565b63ffffffff60e01b1663780e9d6360e01b8114908115610299575b506040519015158152602090f35b6380ac58cd60e01b8114915081156102cb575b81156102ba575b503861028b565b6301ffc9a760e01b149050386102b3565b635b5e139f60e01b811491506102ac565b600091031261024e57565b60005b8381106102fa5750506000910152565b81810151838201526020016102ea565b90602091610323815180928185528580860191016102e7565b601f01601f1916010190565b90602061034092818152019061030a565b90565b3461024e57600036600319011261024e5760405160008054610364816116e3565b80845290600181169081156103f9575060011461039c575b6103988361038c818503826111eb565b6040519182918261032f565b0390f35b60008080527f290decd9548b62a8d60345a988386fc84ba6bc95484008f6362f93160ef3e563939250905b8082106103df5750909150810160200161038c61037c565b9192600181602092548385880101520191019092916103c7565b60ff191660208086019190915291151560051b8401909101915061038c905061037c565b3461024e57602036600319011261024e57602061043b6004356117a0565b6040516001600160a01b039091168152f35b6001600160a01b0381160361024e57565b3461024e57604036600319011261024e5760043561047b8161044d565b60243561048781611a60565b916001600160a01b0380841690821681146104f0576104b9936104b49133149081156104bb575b506117de565b611cc0565b005b6001600160a01b0316600090815260056020908152604080832033845290915290206104ea91505b5460ff1690565b386104ae565b60405162461bcd60e51b815260206004820152602160248201527f4552433732313a20617070726f76616c20746f2063757272656e74206f776e656044820152603960f91b6064820152608490fd5b600036600319011261024e5766470de4df82000034036105fa576105676001600c5401600c55565b600c546105748133611d78565b73__$d503fc7fc259a413f130539f8fbb89f3b9$__90813b1561024e5760405163391b088d60e01b8152600d60048201526024810182905291600090839060449082905af49182156105f557610398926105da575b506040519081529081906020820190565b806105e960006105ef936111eb565b806102dc565b386105c9565b611850565b63198d8b9f60e01b60005260046000fd5b3461024e57600036600319011261024e57600b546040516001600160a01b039091168152602090f35b3461024e57608036600319011261024e5761065060043561044d565b60243561065c8161044d565b604435906064359067ffffffffffffffff821161024e573660238301121561024e5781600401359067ffffffffffffffff821161024e57366024838501011161024e576103989360246106b094019161185c565b6040516001600160e01b031990911681529081906020820190565b3461024e57600036600319011261024e576020600854604051908152f35b606090600319011261024e576004356107018161044d565b9060243561070e8161044d565b9060443590565b3461024e576104b9610726366106e9565b916107396107348433611eb6565b611943565b611f92565b3461024e57604036600319011261024e5760043561075b8161044d565b6024359061076881611a83565b82101561079c576001600160a01b031660009081526006602090815260408083209383529281529082902054915191825290f35b60405162461bcd60e51b815260206004820152602b60248201527f455243373231456e756d657261626c653a206f776e657220696e646578206f7560448201526a74206f6620626f756e647360a81b6064820152608490fd5b3461024e576104b9610806366106e9565b90604051926108166020856111eb565b60008452611c78565b3461024e57600036600319011261024e57471561086b57600080808060018060a01b03600b541647905af16108526119a5565b501561085a57005b63e56baab760e01b60005260046000fd5b630b264f8360e31b60005260046000fd5b3461024e57602036600319011261024e576004356008548110156108cd5760086000527ff3f7a9fe364faab93b216da50a3214154f22a0a2b415b23a84c8169e8b636ee30154604051908152602090f35b60405162461bcd60e51b815260206004820152602c60248201527f455243373231456e756d657261626c653a20676c6f62616c20696e646578206f60448201526b7574206f6620626f756e647360a01b6064820152608490fd5b9060028210156109345752565b634e487b7160e01b600052602160045260246000fd5b602060408183019282815284518094520192019060005b81811061096e5750505090565b90919260206040600192610994838851868060a01b038151168452015184830190610927565b019401929101610961565b3461024e57600036600319011261024e57600e5467ffffffffffffffff8111610a5957604051906109d660208260051b01836111eb565b80825260208201600e6000527fbb7b4a454dc3493923482f07822329ed19e8244eff582cc204f8554c3620c3fd6000915b838310610a1c5760405180610398878261094a565b600160208192604051610a2e816111b3565b610a4b60ff8754868060a01b038116845260a01c16848301611a08565b815201920192019190610a07565b61119d565b3461024e57602036600319011261024e57602061043b600435611a60565b3461024e57602036600319011261024e576020610aa3600435610a9e8161044d565b611a83565b604051908152f35b3461024e57600036600319011261024e57610ac46120ed565b600a80546001600160a01b031981169091556000906001600160a01b03167f8be0079c531659141344cd1fd0a4f28419497f9722a3daafe3b4186f6b6457e08280a3005b3461024e5760006020366003190112610b905773__$e3733dcc2607fcfb223e547dc44a4a0bca$__81600435823b15610b8e57604051928380809363efa9872960e01b825260606004830152610b6060648301611afa565b9060106024840152604483015203915af480156105f5578290610b805780f35b610b89916111eb565b388180f35b505b80fd5b3461024e57600036600319011261024e57600a546040516001600160a01b039091168152602090f35b3461024e5760006040366003190112610b9057600435610bdb8161044d565b8160243573__$e3733dcc2607fcfb223e547dc44a4a0bca$__803b15610c475760405163c6ebe1a360e01b8152600f6004820152601060248201526001600160a01b039490941660448501526064840191909152829060849082905af480156105f5578290610b805780f35b8280fd5b3461024e57600036600319011261024e576040516000600154610c6d816116e3565b80845290600181169081156103f95750600114610c94576103988361038c818503826111eb565b600160009081527fb10e2d527612073b26eecdfd717e6a320cf44b4afac2b0732d9fcbe2b7fa0cf6939250905b808210610cd95750909150810160200161038c61037c565b919260018160209254838588010152019101909291610cc1565b8015150361024e57565b3461024e57604036600319011261024e57600435610d1a8161044d565b602435610d2681610cf3565b6001600160a01b03821691338314610da85781610d65610d769233600052600560205260406000209060018060a01b0316600052602052604060002090565b9060ff801983541691151516179055565b604051901515815233907f17307eab39ab6107e8899845ad3d59bd9653f200f220920489ca2b5937696c3190602090a3005b60405162461bcd60e51b815260206004820152601960248201527f4552433732313a20617070726f766520746f2063616c6c6572000000000000006044820152606490fd5b6002111561024e57565b3461024e57604036600319011261024e576104b9600435610e178161044d565b60243590610e2482610ded565b610e2c6120ed565b612145565b3461024e57602036600319011261024e57610ece6000600435808252600d60205260408220600460405191610e65836111cf565b8054835260018101546020840152604051610e8e81610e87816002860161171d565b03826111eb565b6040840152604051610ea781610e87816003860161171d565b60608401520154608082015260405163175020f560e21b8152938492839260048401611c09565b038173__$274925a401284967f66b0c66a81bd03754$__5af480156105f55761039891600091610f06575b506040519182918261032f565b610f2391503d806000833e610f1b81836111eb565b810190611baa565b38610ef9565b3461024e57602036600319011261024e57600435610f468161044d565b610f4e6120ed565b600b54906001600160a01b038083169082168015610fd157818114610fc0576001600160a01b031993909316909217600b55604080516001600160a01b0393841681529190921660208201527f649c5e3d0ed183894196148e193af316452b0037e77d2ff0fef23b7dc722bed09190a1005b6348c41f9b60e01b60005260046000fd5b630503d1d560e41b60005260046000fd5b9181601f8401121561024e5782359167ffffffffffffffff831161024e576020808501948460051b01011161024e57565b3461024e57604036600319011261024e5760043567ffffffffffffffff811161024e57611044903690600401610fe2565b60243567ffffffffffffffff811161024e57611064903690600401610fe2565b9061106d6120ed565b821561113f5781830361112e5760005b8381106110f757505050604051908060208301602084525260408201929060005b8181106110cd577f32f2370e0dc4460c7df1749be2f9ddafd4c5f97d6a543e7c5ea205d02d49e60a84860385a1005b90919360208060019287356110e18161044d565b848060a01b03168152019501910191909161109e565b80611128611108600193878961227e565b356111128161044d565b61111d83878761227e565b3590610e2c82610ded565b0161107d565b6308dd6a9360e41b60005260046000fd5b637c7a2a9560e01b60005260046000fd5b3461024e57604036600319011261024e5760043561116d8161044d565b6024359060018060a01b031660005260106020526040600020906000526020526020604060002054604051908152f35b634e487b7160e01b600052604160045260246000fd5b6040810190811067ffffffffffffffff821117610a5957604052565b60a0810190811067ffffffffffffffff821117610a5957604052565b90601f8019910116810190811067ffffffffffffffff821117610a5957604052565b67ffffffffffffffff8111610a5957601f01601f191660200190565b9291926112358261120d565b9161124360405193846111eb565b82948184528183011161024e578281602093846000960137010152565b3461024e57608036600319011261024e5760043561127d8161044d565b6024359061128a8261044d565b6044356064359267ffffffffffffffff841161024e573660238501121561024e576112c26104b9943690602481600401359101611229565b92611c78565b3461024e57604036600319011261024e5761132960206004356112ea8161044d565b6024356040516345dbfbe360e11b8152600f6004820152601060248201526001600160a01b039092166044830152606482015291829081906084820190565b038173__$e3733dcc2607fcfb223e547dc44a4a0bca$__5af480156105f55760009061135b575b604051908152602090f35b506020813d602011611387575b81611375602093836111eb565b8101031261024e576103989051611350565b3d9150611368565b3461024e57602036600319011261024e576004356000818152600260205260409020546001600160a01b031615611485576000818152600d6020526040808220905163346caf3d60e11b81526080600482015292839182916113f360848401611afa565b60106024850152600319848203016044850152825481526001830154602082015260a060408201526080600461144361143260a085016002880161171d565b84810360608601526003870161171d565b9401549101526064830152038173__$274925a401284967f66b0c66a81bd03754$__5af480156105f55761039891600091610f0657506040519182918261032f565b63df4d604f60e01b60005260046000fd5b3461024e57604036600319011261024e576114f760206004356114b88161044d565b6024356040516361dae5a760e11b8152600f6004820152601060248201526001600160a01b039092166044830152606482015291829081906084820190565b038173__$e3733dcc2607fcfb223e547dc44a4a0bca$__5af480156105f55760009061152b575b6040519015158152602090f35b506020813d602011611560575b81611545602093836111eb565b8101031261024e57610398905161155b81610cf3565b61151e565b3d9150611538565b3461024e57602036600319011261024e576004356115858161044d565b60018060a01b0316600052600f602052602060ff604060002054166040519015158152f35b3461024e57604036600319011261024e57602060ff6116066004356115ce8161044d565b602435906115db8261044d565b60018060a01b03166000526005845260406000209060018060a01b0316600052602052604060002090565b54166040519015158152f35b3461024e57602036600319011261024e5760043561162f8161044d565b6116376120ed565b6001600160a01b0381161561168f57600a80546001600160a01b039283166001600160a01b0319821681179092559091167f8be0079c531659141344cd1fd0a4f28419497f9722a3daafe3b4186f6b6457e0600080a3005b60405162461bcd60e51b815260206004820152602660248201527f4f776e61626c653a206e6577206f776e657220697320746865207a65726f206160448201526564647265737360d01b6064820152608490fd5b90600182811c92168015611713575b60208310146116fd57565b634e487b7160e01b600052602260045260246000fd5b91607f16916116f2565b6000929181549161172d836116e3565b8083529260018116908115611783575060011461174957505050565b60009081526020812093945091925b838310611769575060209250010190565b600181602092949394548385870101520191019190611758565b915050602093945060ff929192191683830152151560051b010190565b6000818152600260205260409020546117c3906001600160a01b03161515611a14565b6000908152600460205260409020546001600160a01b031690565b156117e557565b60405162461bcd60e51b815260206004820152603d60248201527f4552433732313a20617070726f76652063616c6c6572206973206e6f7420746f60448201527f6b656e206f776e6572206f7220617070726f76656420666f7220616c6c0000006064820152608490fd5b6040513d6000823e3d90fd5b9161186991933691611229565b600060208251106119345750602001519061188382611a60565b6001600160a01b0391821691160361192357336000908152600f602052604090206118ad906104e3565b15611912573360009081526010602052604090206118d79082905b90600052602052604060002090565b54611901573360009081526010602052604090206118f591906118c8565b55630a85bd0160e11b90565b630ed9148160e01b60005260046000fd5b63249b262960e01b60005260046000fd5b6359bc8af160e01b60005260046000fd5b63605babf960e01b8152600490fd5b1561194a57565b60405162461bcd60e51b815260206004820152602d60248201527f4552433732313a2063616c6c6572206973206e6f7420746f6b656e206f776e6560448201526c1c881bdc88185c1c1c9bdd9959609a1b6064820152608490fd5b3d156119d0573d906119b68261120d565b916119c460405193846111eb565b82523d6000602084013e565b606090565b634e487b7160e01b600052603260045260246000fd5b8054821015611a035760005260206000200190600090565b6119d5565b60028210156109345752565b15611a1b57565b60405162461bcd60e51b815260206004820152601860248201527f4552433732313a20696e76616c696420746f6b656e20494400000000000000006044820152606490fd5b6000908152600260205260409020546001600160a01b0316610340811515611a14565b6001600160a01b03168015611aa357600052600360205260406000205490565b60405162461bcd60e51b815260206004820152602960248201527f4552433732313a2061646472657373207a65726f206973206e6f7420612076616044820152683634b21037bbb732b960b91b6064820152608490fd5b6020600e54918281520190600e60005260206000209060005b818110611b205750505090565b909192600160408192611b488754848060a01b038116835260ff602084019160a01c16610927565b019401929101611b13565b906020825491828152019160005260206000209060005b818110611b775750505090565b909192600160408192611b9f8754848060a01b038116835260ff602084019160a01c16610927565b019401929101611b6a565b60208183031261024e5780519067ffffffffffffffff821161024e570181601f8201121561024e578051611bdd8161120d565b92611beb60405194856111eb565b8184526020828401011161024e5761034091602080850191016102e7565b92919060609060808552611c2160808601600e611b53565b6010602087015285810360408701528151815260208201516020820152608080611c6d611c5d604086015160a0604087015260a086019061030a565b868601518582038887015261030a565b930151910152930152565b90611c9c939291611c8c6107348433611eb6565b611c97838383611f92565b61244f565b15611ca357565b60405162461bcd60e51b815280611cbc6004820161228e565b0390fd5b600082815260046020526040902080546001600160a01b0319166001600160a01b0383161790556001600160a01b03611cf883611a60565b6001600160a01b0390921691167f8c5be1e5ebec7d5bd14f71427d1e84f3dd0314c0f7b2291e5b200ac8c7c3b925600080a4565b15611d3357565b60405162461bcd60e51b815260206004820152601c60248201527f4552433732313a20746f6b656e20616c7265616479206d696e746564000000006044820152606490fd5b6001600160a01b038116908115611e7257600083815260026020526040902054611e3b9190611db0906001600160a01b031615611d2c565b611db98461252f565b82611e6357611dc7846125c7565b600084815260026020526040902054611de9906001600160a01b031615611d2c565b6001600160a01b038116600090815260036020526040902060018154019055611e1c846000526002602052604060002090565b80546001600160a01b0319166001600160a01b03909216919091179055565b60007fddf252ad1be2c89b69c2b068fc378daa952ba7f163c4a11628f55a4df523b3ef8180a4565b611e6d8482612589565b611dc7565b606460405162461bcd60e51b815260206004820152602060248201527f4552433732313a206d696e7420746f20746865207a65726f20616464726573736044820152fd5b6001600160a01b03611ec783611a60565b6001600160a01b0383169116818114939192908415611f08575b50508215611eee57505090565b9091506001600160a01b0390611f03906117a0565b161490565b60009081526005602090815260408083206001600160a01b03949094168352929052205460ff1692503880611ee1565b15611f3f57565b60405162461bcd60e51b815260206004820152602560248201527f4552433732313a207472616e736665722066726f6d20696e636f72726563742060448201526437bbb732b960d91b6064820152608490fd5b611f9b83611a60565b6001600160a01b038083169291611fb491168314611f38565b6001600160a01b03831692831561209c5761203a82611fd78784612075966122e1565b611ff985611ff3611fe78a611a60565b6001600160a01b031690565b14611f38565b612020612010886000526004602052604060002090565b80546001600160a01b0319169055565b6001600160a01b0316600090815260036020526040902090565b80546000190190556001600160a01b038116600090815260036020526040902060018154019055611e1c856000526002602052604060002090565b7fddf252ad1be2c89b69c2b068fc378daa952ba7f163c4a11628f55a4df523b3ef600080a4565b60405162461bcd60e51b8152602060048201526024808201527f4552433732313a207472616e7366657220746f20746865207a65726f206164646044820152637265737360e01b6064820152608490fd5b600a546001600160a01b0316330361210157565b606460405162461bcd60e51b815260206004820152602060248201527f4f776e61626c653a2063616c6c6572206973206e6f7420746865206f776e65726044820152fd5b6001600160a01b0381166000908152600f602052604090205460ff1661226d576001600160a01b0381166000908152600f60205260409020805460ff1916600117905560405191612195836111b3565b6001600160a01b038216835260208301906121b09082611a08565b600e54600160401b811015610a59578060016121d19201600e55600e6119eb565b939093612257575183546001600160a01b0319166001600160a01b03919091161783555190600282101561093457825460ff60a01b191660a09290921b60ff60a01b16919091179091556040516001600160a01b0390911681527f8201825e315682fab446f6a324905f8105e6d8c15c9f8267df13444975c54cd99080602081010390a1565b634e487b7160e01b600052600060045260246000fd5b6314d062a360e21b60005260046000fd5b9190811015611a035760051b0190565b60809060208152603260208201527f4552433732313a207472616e7366657220746f206e6f6e20455243373231526560408201527131b2b4bb32b91034b6b83632b6b2b73a32b960711b60608201520190565b9091906001600160a01b038116908161232d57506122fe8261252f565b6001600160a01b0383168061231b57505061231991506125c7565b565b03612324575050565b61231991612589565b6001600160a01b0384168203612344575b506122fe565b61234d81611a83565b600019810191908211612404576000916118c86123aa92868552600760205260408520548381036123b1575b508461238f886000526007602052604060002090565b556001600160a01b0316600090815260066020526040902090565b553861233e565b8686526006602052604086208487526020526123fd6040872054806123ec846118c88760018060a01b03166000526006602052604060002090565b556000526007602052604060002090565b5538612379565b612519565b9081602091031261024e57516103408161023c565b6001600160a01b0391821681529116602082015260408101919091526080606082018190526103409291019061030a565b919290803b156125105761248093600060209460405196879586948593630a85bd0160e11b8552336004860161241e565b03926001600160a01b03165af1600091816124df575b506124c9576124a36119a5565b805190816124c45760405162461bcd60e51b815280611cbc6004820161228e565b602001fd5b6001600160e01b031916630a85bd0160e11b1490565b61250291925060203d602011612509575b6124fa81836111eb565b810190612409565b9038612496565b503d6124f0565b50505050600190565b634e487b7160e01b600052601160045260246000fd5b60085481600052600960205280604060002055600160401b811015610a595760018101600855600854811015611a035760086000527ff3f7a9fe364faab93b216da50a3214154f22a0a2b415b23a84c8169e8b636ee30155565b9061259382611a83565b9160018060a01b03166000526006602052604060002082600052602052806040600020556000526007602052604060002055565b6008546000198101918183116124045780600052600960205281604060002054931015611a035760086000527ff3f7a9fe364faab93b216da50a3214154f22a0a2b415b23a84c8169e8b636ee282015491831015611a03577ff3f7a9fe364faab93b216da50a3214154f22a0a2b415b23a84c8169e8b636ee383018290556000918252600960205260408083209390935581529081205560085480156126a957600019810190600854821015611a0357600860008181527ff3f7a9fe364faab93b216da50a3214154f22a0a2b415b23a84c8169e8b636ee29092019190915555565b634e487b7160e01b600052603160045260246000fdfea264697066735822122097f5631590dbedb2eb2a43e15b994411396ba56fd152f8edf097b9989c47397e64736f6c634300081c0033",
  "libraries": {
    "AttributesGen": "0x0165878A594ca255338adfa4d48449f69242Eb8F",
    "SnowmanMetadata": "0xDc64a140Aa3E981100a9becA4E685f962f0cF6C9",
    "AccessoryManager": "0x5FC8d32690cc91D4c39d9d3abcBD16989F875707"
  },
  "devdoc": {
    "author": "Valentine Orga",
    "events": {
      "AccessoriesAdded(address[])": {
        "details": "Accessories can only be added by contract owner",
        "params": {
          "accessories": "Address of accessories"
        }
      },
      "AccessoriesRemoved((address,uint8)[],uint256)": {
        "details": "Accessories can only be removed by the Snowman owner",
        "params": {
          "accessories": "Accessories removed",
          "snowmanId": "Id of Snowman with accessories"
        }
      },
      "AccessoryAdded(address)": {
        "details": "Accessory can only be added by contract owner",
        "params": {
          "accessory": "Address of accessory"
        }
      },
      "AccessoryRemoved(address,uint256)": {
        "details": "Accessory can only be removed by the Snowman owner",
        "params": {
          "accessory": "Address of accessory removed",
          "snowmanId": "Id of Snowman with accessory"
        }
      },
      "Approval(address,address,uint256)": {
        "details": "Emitted when `owner` enables `approved` to manage the `tokenId` token."
      },
      "ApprovalForAll(address,address,bool)": {
        "details": "Emitted when `owner` enables or disables (`approved`) `operator` to manage all of its assets."
      },
      "FeesWithdrawn(uint256)": {
        "params": {
          "amount": "Amount of fees withdrawn"
        }
      },
      "Transfer(address,address,uint256)": {
        "details": "Emitted when `tokenId` token is transferred from `from` to `to`."
      }
    },
    "kind": "dev",
    "methods": {
      "accessoryId(address,uint256)": {
        "params": {
          "accessory": "Address of accessory",
          "snowmanId": "Id of Snowman"
        }
      },
      "addAccessory(address,uint8)": {
        "details": "Can only be added by contract owner",
        "params": {
          "accessory": "Address of accessory",
          "position": "Determines which position(Foreground or Background) to place the accessory"
        }
      },
      "approve(address,uint256)": {
        "details": "See {IERC721-approve}."
      },
      "balanceOf(address)": {
        "details": "See {IERC721-balanceOf}."
      },
      "getApproved(uint256)": {
        "details": "See {IERC721-getApproved}."
      },
      "hasAccessory(address,uint256)": {
        "params": {
          "accessory": "Address of accessory",
          "snowmanId": "Id of Snowman to check"
        }
      },
      "isAccessoryAvailable(address)": {
        "details": "The contract owner determines if accessory is available or not",
        "params": {
          "accessory": "Address of accessory"
        }
      },
      "isApprovedForAll(address,address)": {
        "details": "See {IERC721-isApprovedForAll}."
      },
      "name()": {
        "details": "See {IERC721Metadata-name}."
      },
      "owner()": {
        "details": "Returns the address of the current owner."
      },
      "ownerOf(uint256)": {
        "details": "See {IERC721-ownerOf}."
      },
      "removeAccessory(address,uint256)": {
        "details": "Can only be removed by the Snowman owner",
        "params": {
          "accessory": "Address of accessory",
          "snowmanId": "Id of Snowman to remove accessory from"
        }
      },
      "removeAllAccessories(uint256)": {
        "details": "Can only be removed by the Snowman owner",
        "params": {
          "snowmanId": "Id of snowman to remove all accessories from"
        }
      },
      "renderTokenById(uint256)": {
        "params": {
          "tokenId": "Id of Snowman"
        }
      },
      "renounceOwnership()": {
        "details": "Leaves the contract without owner. It will not be possible to call `onlyOwner` functions anymore. Can only be called by the current owner. NOTE: Renouncing ownership will leave the contract without an owner, thereby removing any functionality that is only available to the owner."
      },
      "safeTransferFrom(address,address,uint256)": {
        "details": "See {IERC721-safeTransferFrom}."
      },
      "safeTransferFrom(address,address,uint256,bytes)": {
        "details": "See {IERC721-safeTransferFrom}."
      },
      "setApprovalForAll(address,bool)": {
        "details": "See {IERC721-setApprovalForAll}."
      },
      "setFeeCollector(address)": {
        "params": {
          "newFeeCollector": "Address of new fee collector"
        }
      },
      "supportsInterface(bytes4)": {
        "details": "See {IERC165-supportsInterface}."
      },
      "symbol()": {
        "details": "See {IERC721Metadata-symbol}."
      },
      "tokenByIndex(uint256)": {
        "details": "See {IERC721Enumerable-tokenByIndex}."
      },
      "tokenOfOwnerByIndex(address,uint256)": {
        "details": "See {IERC721Enumerable-tokenOfOwnerByIndex}."
      },
      "totalSupply()": {
        "details": "See {IERC721Enumerable-totalSupply}."
      },
      "transferFrom(address,address,uint256)": {
        "details": "See {IERC721-transferFrom}."
      },
      "transferOwnership(address)": {
        "details": "Transfers ownership of the contract to a new account (`newOwner`). Can only be called by the current owner."
      },
      "withdrawFees()": {
        "details": "Anyone can call this function"
      }
    },
    "title": "Snowman - ERC4883 Composable Snowman NFT",
    "version": 1
  },
  "userdoc": {
    "events": {
      "AccessoriesAdded(address[])": {
        "notice": "Emitted when multiple accessories have been added"
      },
      "AccessoriesRemoved((address,uint8)[],uint256)": {
        "notice": "Emitted when an accessory is removed from a Snowman"
      },
      "AccessoryAdded(address)": {
        "notice": "Emitted when an accessory has been added"
      },
      "AccessoryRemoved(address,uint256)": {
        "notice": "Emitted when an accessory is removed from a Snowman"
      },
      "FeesWithdrawn(uint256)": {
        "notice": "Emitted when fees are withdrawn"
      }
    },
    "kind": "user",
    "methods": {
      "accessoryId(address,uint256)": {
        "notice": "Returns the id of accessory added to a snowman"
      },
      "addAccessory(address,uint8)": {
        "notice": "Adds an accessory to Snowman for composition by Snowman owners"
      },
      "getAccessories()": {
        "notice": "Retrieves all accessories"
      },
      "getFeeCollector()": {
        "notice": "Retrieves the current mint fee collector"
      },
      "hasAccessory(address,uint256)": {
        "notice": "Returns `true` if an accessory has been added to a Snowman and `false` otherwise"
      },
      "isAccessoryAvailable(address)": {
        "notice": "Returns `true` if accessory is available for composition and `false` otherwise"
      },
      "mint()": {
        "notice": "Mints one snowman with dynamic attributes for 0.02 ETH"
      },
      "removeAccessory(address,uint256)": {
        "notice": "Removes an accessory from a Snowman"
      },
      "removeAllAccessories(uint256)": {
        "notice": "Removes all accessories from a Snowman"
      },
      "renderTokenById(uint256)": {
        "notice": "Returns the SVG image of Snowman"
      },
      "setFeeCollector(address)": {
        "notice": "Sets a new mint fee collector"
      },
      "withdrawFees()": {
        "notice": "Withdraws mint fees to fee collector's account"
      }
    },
    "notice": "Mint a unique snowman and compose with other accessories(NFTs) approved by the admin.",
    "version": 1
  },
  "storageLayout": {
    "storage": [
      {
        "astId": 144,
        "contract": "contracts/Snowman.sol:Snowman",
        "label": "_name",
        "offset": 0,
        "slot": "0",
        "type": "t_string_storage"
      },
      {
        "astId": 146,
        "contract": "contracts/Snowman.sol:Snowman",
        "label": "_symbol",
        "offset": 0,
        "slot": "1",
        "type": "t_string_storage"
      },
      {
        "astId": 150,
        "contract": "contracts/Snowman.sol:Snowman",
        "label": "_owners",
        "offset": 0,
        "slot": "2",
        "type": "t_mapping(t_uint256,t_address)"
      },
      {
        "astId": 154,
        "contract": "contracts/Snowman.sol:Snowman",
        "label": "_balances",
        "offset": 0,
        "slot": "3",
        "type": "t_mapping(t_address,t_uint256)"
      },
      {
        "astId": 158,
        "contract": "contracts/Snowman.sol:Snowman",
        "label": "_tokenApprovals",
        "offset": 0,
        "slot": "4",
        "type": "t_mapping(t_uint256,t_address)"
      },
      {
        "astId": 164,
        "contract": "contracts/Snowman.sol:Snowman",
        "label": "_operatorApprovals",
        "offset": 0,
        "slot": "5",
        "type": "t_mapping(t_address,t_mapping(t_address,t_bool))"
      },
      {
        "astId": 1212,
        "contract": "contracts/Snowman.sol:Snowman",
        "label": "_ownedTokens",
        "offset": 0,
        "slot": "6",
        "type": "t_mapping(t_address,t_mapping(t_uint256,t_uint256))"
      },
      {
        "astId": 1216,
        "contract": "contracts/Snowman.sol:Snowman",
        "label": "_ownedTokensIndex",
        "offset": 0,
        "slot": "7",
        "type": "t_mapping(t_uint256,t_uint256)"
      },
      {
        "astId": 1219,
        "contract": "contracts/Snowman.sol:Snowman",
        "label": "_allTokens",
        "offset": 0,
        "slot": "8",
        "type": "t_array(t_uint256)dyn_storage"
      },
      {
        "astId": 1223,
        "contract": "contracts/Snowman.sol:Snowman",
        "label": "_allTokensIndex",
        "offset": 0,
        "slot": "9",
        "type": "t_mapping(t_uint256,t_uint256)"
      },
      {
        "astId": 7,
        "contract": "contracts/Snowman.sol:Snowman",
        "label": "_owner",
        "offset": 0,
        "slot": "10",
        "type": "t_address"
      },
      {
        "astId": 3341,
        "contract": "contracts/Snowman.sol:Snowman",
        "label": "s_feeCollector",
        "offset": 0,
        "slot": "11",
        "type": "t_address_payable"
      },
      {
        "astId": 3344,
        "contract": "contracts/Snowman.sol:Snowman",
        "label": "s_tokenIds",
        "offset": 0,
        "slot": "12",
        "type": "t_struct(Counter)1967_storage"
      },
      {
        "astId": 3349,
        "contract": "contracts/Snowman.sol:Snowman",
        "label": "s_attributes",
        "offset": 0,
        "slot": "13",
        "type": "t_mapping(t_uint256,t_struct(Snowman)6567_storage)"
      },
      {
        "astId": 3353,
        "contract": "contracts/Snowman.sol:Snowman",
        "label": "s_accessories",
        "offset": 0,
        "slot": "14",
        "type": "t_array(t_struct(Accessory)6556_storage)dyn_storage"
      },
      {
        "astId": 3357,
        "contract": "contracts/Snowman.sol:Snowman",
        "label": "s_accessoriesAvailable",
        "offset": 0,
        "slot": "15",
        "type": "t_mapping(t_address,t_bool)"
      },
      {
        "astId": 3363,
        "contract": "contracts/Snowman.sol:Snowman",
        "label": "s_accessoriesById",
        "offset": 0,
        "slot": "16",
        "type": "t_mapping(t_address,t_mapping(t_uint256,t_uint256))"
      }
    ],
    "types": {
      "t_address": {
        "encoding": "inplace",
        "label": "address",
        "numberOfBytes": "20"
      },
      "t_address_payable": {
        "encoding": "inplace",
        "label": "address payable",
        "numberOfBytes": "20"
      },
      "t_array(t_struct(Accessory)6556_storage)dyn_storage": {
        "base": "t_struct(Accessory)6556_storage",
        "encoding": "dynamic_array",
        "label": "struct DataTypes.Accessory[]",
        "numberOfBytes": "32"
      },
      "t_array(t_uint256)dyn_storage": {
        "base": "t_uint256",
        "encoding": "dynamic_array",
        "label": "uint256[]",
        "numberOfBytes": "32"
      },
      "t_bool": {
        "encoding": "inplace",
        "label": "bool",
        "numberOfBytes": "1"
      },
      "t_enum(AccessoryPosition)6550": {
        "encoding": "inplace",
        "label": "enum DataTypes.AccessoryPosition",
        "numberOfBytes": "1"
      },
      "t_int256": {
        "encoding": "inplace",
        "label": "int256",
        "numberOfBytes": "32"
      },
      "t_mapping(t_address,t_bool)": {
        "encoding": "mapping",
        "key": "t_address",
        "label": "mapping(address => bool)",
        "numberOfBytes": "32",
        "value": "t_bool"
      },
      "t_mapping(t_address,t_mapping(t_address,t_bool))": {
        "encoding": "mapping",
        "key": "t_address",
        "label": "mapping(address => mapping(address => bool))",
        "numberOfBytes": "32",
        "value": "t_mapping(t_address,t_bool)"
      },
      "t_mapping(t_address,t_mapping(t_uint256,t_uint256))": {
        "encoding": "mapping",
        "key": "t_address",
        "label": "mapping(address => mapping(uint256 => uint256))",
        "numberOfBytes": "32",
        "value": "t_mapping(t_uint256,t_uint256)"
      },
      "t_mapping(t_address,t_uint256)": {
        "encoding": "mapping",
        "key": "t_address",
        "label": "mapping(address => uint256)",
        "numberOfBytes": "32",
        "value": "t_uint256"
      },
      "t_mapping(t_uint256,t_address)": {
        "encoding": "mapping",
        "key": "t_uint256",
        "label": "mapping(uint256 => address)",
        "numberOfBytes": "32",
        "value": "t_address"
      },
      "t_mapping(t_uint256,t_struct(Snowman)6567_storage)": {
        "encoding": "mapping",
        "key": "t_uint256",
        "label": "mapping(uint256 => struct DataTypes.Snowman)",
        "numberOfBytes": "32",
        "value": "t_struct(Snowman)6567_storage"
      },
      "t_mapping(t_uint256,t_uint256)": {
        "encoding": "mapping",
        "key": "t_uint256",
        "label": "mapping(uint256 => uint256)",
        "numberOfBytes": "32",
        "value": "t_uint256"
      },
      "t_string_storage": {
        "encoding": "bytes",
        "label": "string",
        "numberOfBytes": "32"
      },
      "t_struct(Accessory)6556_storage": {
        "encoding": "inplace",
        "label": "struct DataTypes.Accessory",
        "members": [
          {
            "astId": 6552,
            "contract": "contracts/Snowman.sol:Snowman",
            "label": "_address",
            "offset": 0,
            "slot": "0",
            "type": "t_address"
          },
          {
            "astId": 6555,
            "contract": "contracts/Snowman.sol:Snowman",
            "label": "position",
            "offset": 20,
            "slot": "0",
            "type": "t_enum(AccessoryPosition)6550"
          }
        ],
        "numberOfBytes": "32"
      },
      "t_struct(Counter)1967_storage": {
        "encoding": "inplace",
        "label": "struct Counters.Counter",
        "members": [
          {
            "astId": 1966,
            "contract": "contracts/Snowman.sol:Snowman",
            "label": "_value",
            "offset": 0,
            "slot": "0",
            "type": "t_uint256"
          }
        ],
        "numberOfBytes": "32"
      },
      "t_struct(Snowman)6567_storage": {
        "encoding": "inplace",
        "label": "struct DataTypes.Snowman",
        "members": [
          {
            "astId": 6558,
            "contract": "contracts/Snowman.sol:Snowman",
            "label": "eyeOffsetX",
            "offset": 0,
            "slot": "0",
            "type": "t_int256"
          },
          {
            "astId": 6560,
            "contract": "contracts/Snowman.sol:Snowman",
            "label": "eyeOffsetY",
            "offset": 0,
            "slot": "1",
            "type": "t_int256"
          },
          {
            "astId": 6562,
            "contract": "contracts/Snowman.sol:Snowman",
            "label": "cloudColor",
            "offset": 0,
            "slot": "2",
            "type": "t_string_storage"
          },
          {
            "astId": 6564,
            "contract": "contracts/Snowman.sol:Snowman",
            "label": "buttonColor",
            "offset": 0,
            "slot": "3",
            "type": "t_string_storage"
          },
          {
            "astId": 6566,
            "contract": "contracts/Snowman.sol:Snowman",
            "label": "snowAnimOffsetX",
            "offset": 0,
            "slot": "4",
            "type": "t_int256"
          }
        ],
        "numberOfBytes": "160"
      },
      "t_uint256": {
        "encoding": "inplace",
        "label": "uint256",
        "numberOfBytes": "32"
      }
    }
  }
}